{
  "_format": "hh-sol-artifact-1",
  "contractName": "NFT",
  "sourceName": "contracts/NFT.sol",
  "abi": [
    {
      "inputs": [],
      "stateMutability": "nonpayable",
      "type": "constructor"
    },
    {
      "anonymous": false,
      "inputs": [
        {
          "indexed": true,
          "internalType": "address",
          "name": "owner",
          "type": "address"
        },
        {
          "indexed": true,
          "internalType": "address",
          "name": "approved",
          "type": "address"
        },
        {
          "indexed": true,
          "internalType": "uint256",
          "name": "tokenId",
          "type": "uint256"
        }
      ],
      "name": "Approval",
      "type": "event"
    },
    {
      "anonymous": false,
      "inputs": [
        {
          "indexed": true,
          "internalType": "address",
          "name": "owner",
          "type": "address"
        },
        {
          "indexed": true,
          "internalType": "address",
          "name": "operator",
          "type": "address"
        },
        {
          "indexed": false,
          "internalType": "bool",
          "name": "approved",
          "type": "bool"
        }
      ],
      "name": "ApprovalForAll",
      "type": "event"
    },
    {
      "anonymous": false,
      "inputs": [
        {
          "indexed": false,
          "internalType": "address",
          "name": "_sender",
          "type": "address"
        },
        {
          "indexed": false,
          "internalType": "uint256",
          "name": "_tokenId",
          "type": "uint256"
        },
        {
          "indexed": false,
          "internalType": "uint8",
          "name": "_planetIndex",
          "type": "uint8"
        }
      ],
      "name": "PlanetMinted",
      "type": "event"
    },
    {
      "anonymous": false,
      "inputs": [
        {
          "indexed": true,
          "internalType": "address",
          "name": "from",
          "type": "address"
        },
        {
          "indexed": true,
          "internalType": "address",
          "name": "to",
          "type": "address"
        },
        {
          "indexed": true,
          "internalType": "uint256",
          "name": "tokenId",
          "type": "uint256"
        }
      ],
      "name": "Transfer",
      "type": "event"
    },
    {
      "inputs": [
        {
          "internalType": "address",
          "name": "to",
          "type": "address"
        },
        {
          "internalType": "uint256",
          "name": "tokenId",
          "type": "uint256"
        }
      ],
      "name": "approve",
      "outputs": [],
      "stateMutability": "nonpayable",
      "type": "function"
    },
    {
      "inputs": [
        {
          "internalType": "address",
          "name": "owner",
          "type": "address"
        }
      ],
      "name": "balanceOf",
      "outputs": [
        {
          "internalType": "uint256",
          "name": "",
          "type": "uint256"
        }
      ],
      "stateMutability": "view",
      "type": "function"
    },
    {
      "inputs": [
        {
          "internalType": "uint256",
          "name": "tokenId",
          "type": "uint256"
        }
      ],
      "name": "getApproved",
      "outputs": [
        {
          "internalType": "address",
          "name": "",
          "type": "address"
        }
      ],
      "stateMutability": "view",
      "type": "function"
    },
    {
      "inputs": [
        {
          "internalType": "address",
          "name": "owner",
          "type": "address"
        },
        {
          "internalType": "address",
          "name": "operator",
          "type": "address"
        }
      ],
      "name": "isApprovedForAll",
      "outputs": [
        {
          "internalType": "bool",
          "name": "",
          "type": "bool"
        }
      ],
      "stateMutability": "view",
      "type": "function"
    },
    {
      "inputs": [
        {
          "internalType": "uint8",
          "name": "_planetIndex",
          "type": "uint8"
        }
      ],
      "name": "mintPlanet",
      "outputs": [],
      "stateMutability": "payable",
      "type": "function"
    },
    {
      "inputs": [],
      "name": "name",
      "outputs": [
        {
          "internalType": "string",
          "name": "",
          "type": "string"
        }
      ],
      "stateMutability": "view",
      "type": "function"
    },
    {
      "inputs": [
        {
          "internalType": "uint256",
          "name": "tokenId",
          "type": "uint256"
        }
      ],
      "name": "ownerOf",
      "outputs": [
        {
          "internalType": "address",
          "name": "",
          "type": "address"
        }
      ],
      "stateMutability": "view",
      "type": "function"
    },
    {
      "inputs": [
        {
          "internalType": "address",
          "name": "from",
          "type": "address"
        },
        {
          "internalType": "address",
          "name": "to",
          "type": "address"
        },
        {
          "internalType": "uint256",
          "name": "tokenId",
          "type": "uint256"
        }
      ],
      "name": "safeTransferFrom",
      "outputs": [],
      "stateMutability": "nonpayable",
      "type": "function"
    },
    {
      "inputs": [
        {
          "internalType": "address",
          "name": "from",
          "type": "address"
        },
        {
          "internalType": "address",
          "name": "to",
          "type": "address"
        },
        {
          "internalType": "uint256",
          "name": "tokenId",
          "type": "uint256"
        },
        {
          "internalType": "bytes",
          "name": "data",
          "type": "bytes"
        }
      ],
      "name": "safeTransferFrom",
      "outputs": [],
      "stateMutability": "nonpayable",
      "type": "function"
    },
    {
      "inputs": [
        {
          "internalType": "address",
          "name": "operator",
          "type": "address"
        },
        {
          "internalType": "bool",
          "name": "approved",
          "type": "bool"
        }
      ],
      "name": "setApprovalForAll",
      "outputs": [],
      "stateMutability": "nonpayable",
      "type": "function"
    },
    {
      "inputs": [
        {
          "internalType": "bytes4",
          "name": "interfaceId",
          "type": "bytes4"
        }
      ],
      "name": "supportsInterface",
      "outputs": [
        {
          "internalType": "bool",
          "name": "",
          "type": "bool"
        }
      ],
      "stateMutability": "view",
      "type": "function"
    },
    {
      "inputs": [],
      "name": "symbol",
      "outputs": [
        {
          "internalType": "string",
          "name": "",
          "type": "string"
        }
      ],
      "stateMutability": "view",
      "type": "function"
    },
    {
      "inputs": [
        {
          "internalType": "uint256",
          "name": "",
          "type": "uint256"
        }
      ],
      "name": "tokenIdToPlanetIndex",
      "outputs": [
        {
          "internalType": "uint8",
          "name": "",
          "type": "uint8"
        }
      ],
      "stateMutability": "view",
      "type": "function"
    },
    {
      "inputs": [
        {
          "internalType": "uint256",
          "name": "_tokenId",
          "type": "uint256"
        }
      ],
      "name": "tokenURI",
      "outputs": [
        {
          "internalType": "string",
          "name": "",
          "type": "string"
        }
      ],
      "stateMutability": "view",
      "type": "function"
    },
    {
      "inputs": [
        {
          "internalType": "address",
          "name": "from",
          "type": "address"
        },
        {
          "internalType": "address",
          "name": "to",
          "type": "address"
        },
        {
          "internalType": "uint256",
          "name": "tokenId",
          "type": "uint256"
        }
      ],
      "name": "transferFrom",
      "outputs": [],
      "stateMutability": "nonpayable",
      "type": "function"
    }
  ],
  "bytecode": "0x60806040523480156200001157600080fd5b506040518060400160405280600881526020017f556e69746f7069610000000000000000000000000000000000000000000000008152506040518060400160405280600381526020017f5554500000000000000000000000000000000000000000000000000000000000815250816000908051906020019062000096929190620000e5565b508060019080519060200190620000af929190620000e5565b505050620000c96006620000cf60201b62000b901760201c565b620001fa565b6001816000016000828254019250508190555050565b828054620000f39062000195565b90600052602060002090601f01602090048101928262000117576000855562000163565b82601f106200013257805160ff191683800117855562000163565b8280016001018555821562000163579182015b828111156200016257825182559160200191906001019062000145565b5b50905062000172919062000176565b5090565b5b808211156200019157600081600090555060010162000177565b5090565b60006002820490506001821680620001ae57607f821691505b60208210811415620001c557620001c4620001cb565b5b50919050565b7f4e487b7100000000000000000000000000000000000000000000000000000000600052602260045260246000fd5b61291a806200020a6000396000f3fe6080604052600436106100e85760003560e01c80636352211e1161008a578063a22cb46511610059578063a22cb4651461030b578063b88d4fde14610334578063c87b56dd1461035d578063e985e9c51461039a576100e8565b80636352211e1461024a57806370a08231146102875780638e9253f9146102c457806395d89b41146102e0576100e8565b8063095ea7b3116100c6578063095ea7b31461019257806323b872dd146101bb57806342842e0e146101e45780634c76badb1461020d576100e8565b806301ffc9a7146100ed57806306fdde031461012a578063081812fc14610155575b600080fd5b3480156100f957600080fd5b50610114600480360381019061010f9190611b6e565b6103d7565b6040516101219190611f78565b60405180910390f35b34801561013657600080fd5b5061013f6104b9565b60405161014c9190611f93565b60405180910390f35b34801561016157600080fd5b5061017c60048036038101906101779190611bc0565b61054b565b6040516101899190611eda565b60405180910390f35b34801561019e57600080fd5b506101b960048036038101906101b49190611b32565b610591565b005b3480156101c757600080fd5b506101e260048036038101906101dd9190611a2c565b6106a9565b005b3480156101f057600080fd5b5061020b60048036038101906102069190611a2c565b610709565b005b34801561021957600080fd5b50610234600480360381019061022f9190611bc0565b610729565b6040516102419190612150565b60405180910390f35b34801561025657600080fd5b50610271600480360381019061026c9190611bc0565b610749565b60405161027e9190611eda565b60405180910390f35b34801561029357600080fd5b506102ae60048036038101906102a991906119c7565b6107fb565b6040516102bb9190612135565b60405180910390f35b6102de60048036038101906102d99190611be9565b6108b3565b005b3480156102ec57600080fd5b506102f5610989565b6040516103029190611f93565b60405180910390f35b34801561031757600080fd5b50610332600480360381019061032d9190611af6565b610a1b565b005b34801561034057600080fd5b5061035b60048036038101906103569190611a7b565b610a31565b005b34801561036957600080fd5b50610384600480360381019061037f9190611bc0565b610a93565b6040516103919190611f93565b60405180910390f35b3480156103a657600080fd5b506103c160048036038101906103bc91906119f0565b610afc565b6040516103ce9190611f78565b60405180910390f35b60007f80ac58cd000000000000000000000000000000000000000000000000000000007bffffffffffffffffffffffffffffffffffffffffffffffffffffffff1916827bffffffffffffffffffffffffffffffffffffffffffffffffffffffff191614806104a257507f5b5e139f000000000000000000000000000000000000000000000000000000007bffffffffffffffffffffffffffffffffffffffffffffffffffffffff1916827bffffffffffffffffffffffffffffffffffffffffffffffffffffffff1916145b806104b257506104b182610ba6565b5b9050919050565b6060600080546104c890612382565b80601f01602080910402602001604051908101604052809291908181526020018280546104f490612382565b80156105415780601f1061051657610100808354040283529160200191610541565b820191906000526020600020905b81548152906001019060200180831161052457829003601f168201915b5050505050905090565b600061055682610c10565b6004600083815260200190815260200160002060009054906101000a900473ffffffffffffffffffffffffffffffffffffffff169050919050565b600061059c82610749565b90508073ffffffffffffffffffffffffffffffffffffffff168373ffffffffffffffffffffffffffffffffffffffff16141561060d576040517f08c379a0000000000000000000000000000000000000000000000000000000008152600401610604906120f5565b60405180910390fd5b8073ffffffffffffffffffffffffffffffffffffffff1661062c610c5b565b73ffffffffffffffffffffffffffffffffffffffff16148061065b575061065a81610655610c5b565b610afc565b5b61069a576040517f08c379a000000000000000000000000000000000000000000000000000000000815260040161069190612095565b60405180910390fd5b6106a48383610c63565b505050565b6106ba6106b4610c5b565b82610d1c565b6106f9576040517f08c379a00000000000000000000000000000000000000000000000000000000081526004016106f090612115565b60405180910390fd5b610704838383610db1565b505050565b61072483838360405180602001604052806000815250610a31565b505050565b60076020528060005260406000206000915054906101000a900460ff1681565b6000806002600084815260200190815260200160002060009054906101000a900473ffffffffffffffffffffffffffffffffffffffff169050600073ffffffffffffffffffffffffffffffffffffffff168173ffffffffffffffffffffffffffffffffffffffff1614156107f2576040517f08c379a00000000000000000000000000000000000000000000000000000000081526004016107e9906120d5565b60405180910390fd5b80915050919050565b60008073ffffffffffffffffffffffffffffffffffffffff168273ffffffffffffffffffffffffffffffffffffffff16141561086c576040517f08c379a000000000000000000000000000000000000000000000000000000000815260040161086390612075565b60405180910390fd5b600360008373ffffffffffffffffffffffffffffffffffffffff1673ffffffffffffffffffffffffffffffffffffffff168152602001908152602001600020549050919050565b66470de4df82000034146108fc576040517f08c379a00000000000000000000000000000000000000000000000000000000081526004016108f390611fd5565b60405180910390fd5b60006109086006611018565b90506109143382611026565b816007600083815260200190815260200160002060006101000a81548160ff021916908360ff16021790555061094a6006610b90565b7f7dca587ce38fe0cd0411e1b88539280e9d63747c7c0e706e339847f97a52059a33828460405161097d93929190611f41565b60405180910390a15050565b60606001805461099890612382565b80601f01602080910402602001604051908101604052809291908181526020018280546109c490612382565b8015610a115780601f106109e657610100808354040283529160200191610a11565b820191906000526020600020905b8154815290600101906020018083116109f457829003601f168201915b5050505050905090565b610a2d610a26610c5b565b8383611044565b5050565b610a42610a3c610c5b565b83610d1c565b610a81576040517f08c379a0000000000000000000000000000000000000000000000000000000008152600401610a7890612115565b60405180910390fd5b610a8d848484846111b1565b50505050565b606060006007600084815260200190815260200160002060009054906101000a900460ff1690506000610ac88260ff1661120d565b604051602001610ad89190611eb8565b6040516020818303038152906040529050610af2816113ba565b8092505050919050565b6000600560008473ffffffffffffffffffffffffffffffffffffffff1673ffffffffffffffffffffffffffffffffffffffff16815260200190815260200160002060008373ffffffffffffffffffffffffffffffffffffffff1673ffffffffffffffffffffffffffffffffffffffff16815260200190815260200160002060009054906101000a900460ff16905092915050565b6001816000016000828254019250508190555050565b60007f01ffc9a7000000000000000000000000000000000000000000000000000000007bffffffffffffffffffffffffffffffffffffffffffffffffffffffff1916827bffffffffffffffffffffffffffffffffffffffffffffffffffffffff1916149050919050565b610c1981611453565b610c58576040517f08c379a0000000000000000000000000000000000000000000000000000000008152600401610c4f906120d5565b60405180910390fd5b50565b600033905090565b816004600083815260200190815260200160002060006101000a81548173ffffffffffffffffffffffffffffffffffffffff021916908373ffffffffffffffffffffffffffffffffffffffff160217905550808273ffffffffffffffffffffffffffffffffffffffff16610cd683610749565b73ffffffffffffffffffffffffffffffffffffffff167f8c5be1e5ebec7d5bd14f71427d1e84f3dd0314c0f7b2291e5b200ac8c7c3b92560405160405180910390a45050565b600080610d2883610749565b90508073ffffffffffffffffffffffffffffffffffffffff168473ffffffffffffffffffffffffffffffffffffffff161480610d6a5750610d698185610afc565b5b80610da857508373ffffffffffffffffffffffffffffffffffffffff16610d908461054b565b73ffffffffffffffffffffffffffffffffffffffff16145b91505092915050565b8273ffffffffffffffffffffffffffffffffffffffff16610dd182610749565b73ffffffffffffffffffffffffffffffffffffffff1614610e27576040517f08c379a0000000000000000000000000000000000000000000000000000000008152600401610e1e90611ff5565b60405180910390fd5b600073ffffffffffffffffffffffffffffffffffffffff168273ffffffffffffffffffffffffffffffffffffffff161415610e97576040517f08c379a0000000000000000000000000000000000000000000000000000000008152600401610e8e90612035565b60405180910390fd5b610ea28383836114bf565b610ead600082610c63565b6001600360008573ffffffffffffffffffffffffffffffffffffffff1673ffffffffffffffffffffffffffffffffffffffff1681526020019081526020016000206000828254610efd919061228b565b925050819055506001600360008473ffffffffffffffffffffffffffffffffffffffff1673ffffffffffffffffffffffffffffffffffffffff1681526020019081526020016000206000828254610f549190612204565b92505081905550816002600083815260200190815260200160002060006101000a81548173ffffffffffffffffffffffffffffffffffffffff021916908373ffffffffffffffffffffffffffffffffffffffff160217905550808273ffffffffffffffffffffffffffffffffffffffff168473ffffffffffffffffffffffffffffffffffffffff167fddf252ad1be2c89b69c2b068fc378daa952ba7f163c4a11628f55a4df523b3ef60405160405180910390a46110138383836114c4565b505050565b600081600001549050919050565b6110408282604051806020016040528060008152506114c9565b5050565b8173ffffffffffffffffffffffffffffffffffffffff168373ffffffffffffffffffffffffffffffffffffffff1614156110b3576040517f08c379a00000000000000000000000000000000000000000000000000000000081526004016110aa90612055565b60405180910390fd5b80600560008573ffffffffffffffffffffffffffffffffffffffff1673ffffffffffffffffffffffffffffffffffffffff16815260200190815260200160002060008473ffffffffffffffffffffffffffffffffffffffff1673ffffffffffffffffffffffffffffffffffffffff16815260200190815260200160002060006101000a81548160ff0219169083151502179055508173ffffffffffffffffffffffffffffffffffffffff168373ffffffffffffffffffffffffffffffffffffffff167f17307eab39ab6107e8899845ad3d59bd9653f200f220920489ca2b5937696c31836040516111a49190611f78565b60405180910390a3505050565b6111bc848484610db1565b6111c884848484611524565b611207576040517f08c379a00000000000000000000000000000000000000000000000000000000081526004016111fe90611fb5565b60405180910390fd5b50505050565b60606000821415611255576040518060400160405280600181526020017f300000000000000000000000000000000000000000000000000000000000000081525090506113b5565b600082905060005b60008214611287578080611270906123e5565b915050600a82611280919061225a565b915061125d565b60008167ffffffffffffffff8111156112c9577f4e487b7100000000000000000000000000000000000000000000000000000000600052604160045260246000fd5b6040519080825280601f01601f1916602001820160405280156112fb5781602001600182028036833780820191505090505b5090505b600085146113ae57600182611314919061228b565b9150600a85611323919061242e565b603061132f9190612204565b60f81b81838151811061136b577f4e487b7100000000000000000000000000000000000000000000000000000000600052603260045260246000fd5b60200101907effffffffffffffffffffffffffffffffffffffffffffffffffffffffffffff1916908160001a905350600a856113a7919061225a565b94506112ff565b8093505050505b919050565b611450816040516024016113ce9190611f93565b6040516020818303038152906040527f41304fac000000000000000000000000000000000000000000000000000000007bffffffffffffffffffffffffffffffffffffffffffffffffffffffff19166020820180517bffffffffffffffffffffffffffffffffffffffffffffffffffffffff83818316178352505050506116bb565b50565b60008073ffffffffffffffffffffffffffffffffffffffff166002600084815260200190815260200160002060009054906101000a900473ffffffffffffffffffffffffffffffffffffffff1673ffffffffffffffffffffffffffffffffffffffff1614159050919050565b505050565b505050565b6114d383836116e4565b6114e06000848484611524565b61151f576040517f08c379a000000000000000000000000000000000000000000000000000000000815260040161151690611fb5565b60405180910390fd5b505050565b60006115458473ffffffffffffffffffffffffffffffffffffffff166118be565b156116ae578373ffffffffffffffffffffffffffffffffffffffff1663150b7a0261156e610c5b565b8786866040518563ffffffff1660e01b81526004016115909493929190611ef5565b602060405180830381600087803b1580156115aa57600080fd5b505af19250505080156115db57506040513d601f19601f820116820180604052508101906115d89190611b97565b60015b61165e573d806000811461160b576040519150601f19603f3d011682016040523d82523d6000602084013e611610565b606091505b50600081511415611656576040517f08c379a000000000000000000000000000000000000000000000000000000000815260040161164d90611fb5565b60405180910390fd5b805181602001fd5b63150b7a0260e01b7bffffffffffffffffffffffffffffffffffffffffffffffffffffffff1916817bffffffffffffffffffffffffffffffffffffffffffffffffffffffff1916149150506116b3565b600190505b949350505050565b60008151905060006a636f6e736f6c652e6c6f679050602083016000808483855afa5050505050565b600073ffffffffffffffffffffffffffffffffffffffff168273ffffffffffffffffffffffffffffffffffffffff161415611754576040517f08c379a000000000000000000000000000000000000000000000000000000000815260040161174b906120b5565b60405180910390fd5b61175d81611453565b1561179d576040517f08c379a000000000000000000000000000000000000000000000000000000000815260040161179490612015565b60405180910390fd5b6117a9600083836114bf565b6001600360008473ffffffffffffffffffffffffffffffffffffffff1673ffffffffffffffffffffffffffffffffffffffff16815260200190815260200160002060008282546117f99190612204565b92505081905550816002600083815260200190815260200160002060006101000a81548173ffffffffffffffffffffffffffffffffffffffff021916908373ffffffffffffffffffffffffffffffffffffffff160217905550808273ffffffffffffffffffffffffffffffffffffffff16600073ffffffffffffffffffffffffffffffffffffffff167fddf252ad1be2c89b69c2b068fc378daa952ba7f163c4a11628f55a4df523b3ef60405160405180910390a46118ba600083836114c4565b5050565b6000808273ffffffffffffffffffffffffffffffffffffffff163b119050919050565b60006118f46118ef84612190565b61216b565b90508281526020810184848401111561190c57600080fd5b611917848285612340565b509392505050565b60008135905061192e81612871565b92915050565b60008135905061194381612888565b92915050565b6000813590506119588161289f565b92915050565b60008151905061196d8161289f565b92915050565b600082601f83011261198457600080fd5b81356119948482602086016118e1565b91505092915050565b6000813590506119ac816128b6565b92915050565b6000813590506119c1816128cd565b92915050565b6000602082840312156119d957600080fd5b60006119e78482850161191f565b91505092915050565b60008060408385031215611a0357600080fd5b6000611a118582860161191f565b9250506020611a228582860161191f565b9150509250929050565b600080600060608486031215611a4157600080fd5b6000611a4f8682870161191f565b9350506020611a608682870161191f565b9250506040611a718682870161199d565b9150509250925092565b60008060008060808587031215611a9157600080fd5b6000611a9f8782880161191f565b9450506020611ab08782880161191f565b9350506040611ac18782880161199d565b925050606085013567ffffffffffffffff811115611ade57600080fd5b611aea87828801611973565b91505092959194509250565b60008060408385031215611b0957600080fd5b6000611b178582860161191f565b9250506020611b2885828601611934565b9150509250929050565b60008060408385031215611b4557600080fd5b6000611b538582860161191f565b9250506020611b648582860161199d565b9150509250929050565b600060208284031215611b8057600080fd5b6000611b8e84828501611949565b91505092915050565b600060208284031215611ba957600080fd5b6000611bb78482850161195e565b91505092915050565b600060208284031215611bd257600080fd5b6000611be08482850161199d565b91505092915050565b600060208284031215611bfb57600080fd5b6000611c09848285016119b2565b91505092915050565b611c1b816122bf565b82525050565b611c2a816122d1565b82525050565b6000611c3b826121c1565b611c4581856121d7565b9350611c5581856020860161234f565b611c5e8161251b565b840191505092915050565b6000611c74826121cc565b611c7e81856121e8565b9350611c8e81856020860161234f565b611c978161251b565b840191505092915050565b6000611cad826121cc565b611cb781856121f9565b9350611cc781856020860161234f565b80840191505092915050565b6000611ce06032836121e8565b9150611ceb8261252c565b604082019050919050565b6000611d03600d836121e8565b9150611d0e8261257b565b602082019050919050565b6000611d266025836121e8565b9150611d31826125a4565b604082019050919050565b6000611d49601c836121e8565b9150611d54826125f3565b602082019050919050565b6000611d6c6024836121e8565b9150611d778261261c565b604082019050919050565b6000611d8f6019836121e8565b9150611d9a8261266b565b602082019050919050565b6000611db26029836121e8565b9150611dbd82612694565b604082019050919050565b6000611dd5603e836121e8565b9150611de0826126e3565b604082019050919050565b6000611df86020836121e8565b9150611e0382612732565b602082019050919050565b6000611e1b6018836121e8565b9150611e268261275b565b602082019050919050565b6000611e3e6021836121e8565b9150611e4982612784565b604082019050919050565b6000611e616032836121f9565b9150611e6c826127d3565b603282019050919050565b6000611e84602e836121e8565b9150611e8f82612822565b604082019050919050565b611ea381612329565b82525050565b611eb281612333565b82525050565b6000611ec382611e54565b9150611ecf8284611ca2565b915081905092915050565b6000602082019050611eef6000830184611c12565b92915050565b6000608082019050611f0a6000830187611c12565b611f176020830186611c12565b611f246040830185611e9a565b8181036060830152611f368184611c30565b905095945050505050565b6000606082019050611f566000830186611c12565b611f636020830185611e9a565b611f706040830184611ea9565b949350505050565b6000602082019050611f8d6000830184611c21565b92915050565b60006020820190508181036000830152611fad8184611c69565b905092915050565b60006020820190508181036000830152611fce81611cd3565b9050919050565b60006020820190508181036000830152611fee81611cf6565b9050919050565b6000602082019050818103600083015261200e81611d19565b9050919050565b6000602082019050818103600083015261202e81611d3c565b9050919050565b6000602082019050818103600083015261204e81611d5f565b9050919050565b6000602082019050818103600083015261206e81611d82565b9050919050565b6000602082019050818103600083015261208e81611da5565b9050919050565b600060208201905081810360008301526120ae81611dc8565b9050919050565b600060208201905081810360008301526120ce81611deb565b9050919050565b600060208201905081810360008301526120ee81611e0e565b9050919050565b6000602082019050818103600083015261210e81611e31565b9050919050565b6000602082019050818103600083015261212e81611e77565b9050919050565b600060208201905061214a6000830184611e9a565b92915050565b60006020820190506121656000830184611ea9565b92915050565b6000612175612186565b905061218182826123b4565b919050565b6000604051905090565b600067ffffffffffffffff8211156121ab576121aa6124ec565b5b6121b48261251b565b9050602081019050919050565b600081519050919050565b600081519050919050565b600082825260208201905092915050565b600082825260208201905092915050565b600081905092915050565b600061220f82612329565b915061221a83612329565b9250827fffffffffffffffffffffffffffffffffffffffffffffffffffffffffffffffff0382111561224f5761224e61245f565b5b828201905092915050565b600061226582612329565b915061227083612329565b9250826122805761227f61248e565b5b828204905092915050565b600061229682612329565b91506122a183612329565b9250828210156122b4576122b361245f565b5b828203905092915050565b60006122ca82612309565b9050919050565b60008115159050919050565b60007fffffffff0000000000000000000000000000000000000000000000000000000082169050919050565b600073ffffffffffffffffffffffffffffffffffffffff82169050919050565b6000819050919050565b600060ff82169050919050565b82818337600083830152505050565b60005b8381101561236d578082015181840152602081019050612352565b8381111561237c576000848401525b50505050565b6000600282049050600182168061239a57607f821691505b602082108114156123ae576123ad6124bd565b5b50919050565b6123bd8261251b565b810181811067ffffffffffffffff821117156123dc576123db6124ec565b5b80604052505050565b60006123f082612329565b91507fffffffffffffffffffffffffffffffffffffffffffffffffffffffffffffffff8214156124235761242261245f565b5b600182019050919050565b600061243982612329565b915061244483612329565b9250826124545761245361248e565b5b828206905092915050565b7f4e487b7100000000000000000000000000000000000000000000000000000000600052601160045260246000fd5b7f4e487b7100000000000000000000000000000000000000000000000000000000600052601260045260246000fd5b7f4e487b7100000000000000000000000000000000000000000000000000000000600052602260045260246000fd5b7f4e487b7100000000000000000000000000000000000000000000000000000000600052604160045260246000fd5b6000601f19601f8301169050919050565b7f4552433732313a207472616e7366657220746f206e6f6e20455243373231526560008201527f63656976657220696d706c656d656e7465720000000000000000000000000000602082015250565b7f53656e6420302e30322045544800000000000000000000000000000000000000600082015250565b7f4552433732313a207472616e736665722066726f6d20696e636f72726563742060008201527f6f776e6572000000000000000000000000000000000000000000000000000000602082015250565b7f4552433732313a20746f6b656e20616c7265616479206d696e74656400000000600082015250565b7f4552433732313a207472616e7366657220746f20746865207a65726f2061646460008201527f7265737300000000000000000000000000000000000000000000000000000000602082015250565b7f4552433732313a20617070726f766520746f2063616c6c657200000000000000600082015250565b7f4552433732313a2061646472657373207a65726f206973206e6f74206120766160008201527f6c6964206f776e65720000000000000000000000000000000000000000000000602082015250565b7f4552433732313a20617070726f76652063616c6c6572206973206e6f7420746f60008201527f6b656e206f776e6572206e6f7220617070726f76656420666f7220616c6c0000602082015250565b7f4552433732313a206d696e7420746f20746865207a65726f2061646472657373600082015250565b7f4552433732313a20696e76616c696420746f6b656e2049440000000000000000600082015250565b7f4552433732313a20617070726f76616c20746f2063757272656e74206f776e6560008201527f7200000000000000000000000000000000000000000000000000000000000000602082015250565b7f68747470733a2f2f756e69746f7069616261636b656e642e6f6e72656e64657260008201527f2e636f6d2f6170692f6d657461646174612f0000000000000000000000000000602082015250565b7f4552433732313a2063616c6c6572206973206e6f7420746f6b656e206f776e6560008201527f72206e6f7220617070726f766564000000000000000000000000000000000000602082015250565b61287a816122bf565b811461288557600080fd5b50565b612891816122d1565b811461289c57600080fd5b50565b6128a8816122dd565b81146128b357600080fd5b50565b6128bf81612329565b81146128ca57600080fd5b50565b6128d681612333565b81146128e157600080fd5b5056fea2646970667358221220fa47f1bd13e8028d91844447b8e3f95d64eea72c7769d3f416ff95bbb90579fd64736f6c63430008040033",
  "linkReferences": {},
  "deployedLinkReferences": {}
}