{
  "_format": "hh-sol-artifact-1",
  "contractName": "NFT",
  "sourceName": "contracts/NFT.sol",
  "abi": [
    {
      "inputs": [],
      "stateMutability": "nonpayable",
      "type": "constructor"
    },
    {
      "anonymous": false,
      "inputs": [
        {
          "indexed": true,
          "internalType": "address",
          "name": "owner",
          "type": "address"
        },
        {
          "indexed": true,
          "internalType": "address",
          "name": "approved",
          "type": "address"
        },
        {
          "indexed": true,
          "internalType": "uint256",
          "name": "tokenId",
          "type": "uint256"
        }
      ],
      "name": "Approval",
      "type": "event"
    },
    {
      "anonymous": false,
      "inputs": [
        {
          "indexed": true,
          "internalType": "address",
          "name": "owner",
          "type": "address"
        },
        {
          "indexed": true,
          "internalType": "address",
          "name": "operator",
          "type": "address"
        },
        {
          "indexed": false,
          "internalType": "bool",
          "name": "approved",
          "type": "bool"
        }
      ],
      "name": "ApprovalForAll",
      "type": "event"
    },
    {
      "anonymous": false,
      "inputs": [
        {
          "indexed": false,
          "internalType": "address",
          "name": "_sender",
          "type": "address"
        },
        {
          "indexed": false,
          "internalType": "uint256",
          "name": "_tokenId",
          "type": "uint256"
        },
        {
          "indexed": false,
          "internalType": "uint8",
          "name": "_planetIndex",
          "type": "uint8"
        }
      ],
      "name": "PlanetMinted",
      "type": "event"
    },
    {
      "anonymous": false,
      "inputs": [
        {
          "indexed": true,
          "internalType": "address",
          "name": "from",
          "type": "address"
        },
        {
          "indexed": true,
          "internalType": "address",
          "name": "to",
          "type": "address"
        },
        {
          "indexed": true,
          "internalType": "uint256",
          "name": "tokenId",
          "type": "uint256"
        }
      ],
      "name": "Transfer",
      "type": "event"
    },
    {
      "inputs": [
        {
          "internalType": "address",
          "name": "to",
          "type": "address"
        },
        {
          "internalType": "uint256",
          "name": "tokenId",
          "type": "uint256"
        }
      ],
      "name": "approve",
      "outputs": [],
      "stateMutability": "nonpayable",
      "type": "function"
    },
    {
      "inputs": [
        {
          "internalType": "address",
          "name": "owner",
          "type": "address"
        }
      ],
      "name": "balanceOf",
      "outputs": [
        {
          "internalType": "uint256",
          "name": "",
          "type": "uint256"
        }
      ],
      "stateMutability": "view",
      "type": "function"
    },
    {
      "inputs": [
        {
          "internalType": "uint256",
          "name": "tokenId",
          "type": "uint256"
        }
      ],
      "name": "getApproved",
      "outputs": [
        {
          "internalType": "address",
          "name": "",
          "type": "address"
        }
      ],
      "stateMutability": "view",
      "type": "function"
    },
    {
      "inputs": [
        {
          "internalType": "address",
          "name": "owner",
          "type": "address"
        },
        {
          "internalType": "address",
          "name": "operator",
          "type": "address"
        }
      ],
      "name": "isApprovedForAll",
      "outputs": [
        {
          "internalType": "bool",
          "name": "",
          "type": "bool"
        }
      ],
      "stateMutability": "view",
      "type": "function"
    },
    {
      "inputs": [
        {
          "internalType": "uint8",
          "name": "_planetIndex",
          "type": "uint8"
        }
      ],
      "name": "mintPlanet",
      "outputs": [],
      "stateMutability": "payable",
      "type": "function"
    },
    {
      "inputs": [],
      "name": "name",
      "outputs": [
        {
          "internalType": "string",
          "name": "",
          "type": "string"
        }
      ],
      "stateMutability": "view",
      "type": "function"
    },
    {
      "inputs": [
        {
          "internalType": "uint256",
          "name": "tokenId",
          "type": "uint256"
        }
      ],
      "name": "ownerOf",
      "outputs": [
        {
          "internalType": "address",
          "name": "",
          "type": "address"
        }
      ],
      "stateMutability": "view",
      "type": "function"
    },
    {
      "inputs": [
        {
          "internalType": "address",
          "name": "from",
          "type": "address"
        },
        {
          "internalType": "address",
          "name": "to",
          "type": "address"
        },
        {
          "internalType": "uint256",
          "name": "tokenId",
          "type": "uint256"
        }
      ],
      "name": "safeTransferFrom",
      "outputs": [],
      "stateMutability": "nonpayable",
      "type": "function"
    },
    {
      "inputs": [
        {
          "internalType": "address",
          "name": "from",
          "type": "address"
        },
        {
          "internalType": "address",
          "name": "to",
          "type": "address"
        },
        {
          "internalType": "uint256",
          "name": "tokenId",
          "type": "uint256"
        },
        {
          "internalType": "bytes",
          "name": "data",
          "type": "bytes"
        }
      ],
      "name": "safeTransferFrom",
      "outputs": [],
      "stateMutability": "nonpayable",
      "type": "function"
    },
    {
      "inputs": [
        {
          "internalType": "address",
          "name": "operator",
          "type": "address"
        },
        {
          "internalType": "bool",
          "name": "approved",
          "type": "bool"
        }
      ],
      "name": "setApprovalForAll",
      "outputs": [],
      "stateMutability": "nonpayable",
      "type": "function"
    },
    {
      "inputs": [
        {
          "internalType": "bytes4",
          "name": "interfaceId",
          "type": "bytes4"
        }
      ],
      "name": "supportsInterface",
      "outputs": [
        {
          "internalType": "bool",
          "name": "",
          "type": "bool"
        }
      ],
      "stateMutability": "view",
      "type": "function"
    },
    {
      "inputs": [],
      "name": "symbol",
      "outputs": [
        {
          "internalType": "string",
          "name": "",
          "type": "string"
        }
      ],
      "stateMutability": "view",
      "type": "function"
    },
    {
      "inputs": [
        {
          "internalType": "uint256",
          "name": "index",
          "type": "uint256"
        }
      ],
      "name": "tokenByIndex",
      "outputs": [
        {
          "internalType": "uint256",
          "name": "",
          "type": "uint256"
        }
      ],
      "stateMutability": "view",
      "type": "function"
    },
    {
      "inputs": [
        {
          "internalType": "uint256",
          "name": "",
          "type": "uint256"
        }
      ],
      "name": "tokenIdToPlanetIndex",
      "outputs": [
        {
          "internalType": "uint8",
          "name": "",
          "type": "uint8"
        }
      ],
      "stateMutability": "view",
      "type": "function"
    },
    {
      "inputs": [
        {
          "internalType": "address",
          "name": "owner",
          "type": "address"
        },
        {
          "internalType": "uint256",
          "name": "index",
          "type": "uint256"
        }
      ],
      "name": "tokenOfOwnerByIndex",
      "outputs": [
        {
          "internalType": "uint256",
          "name": "",
          "type": "uint256"
        }
      ],
      "stateMutability": "view",
      "type": "function"
    },
    {
      "inputs": [
        {
          "internalType": "uint256",
          "name": "_tokenId",
          "type": "uint256"
        }
      ],
      "name": "tokenURI",
      "outputs": [
        {
          "internalType": "string",
          "name": "",
          "type": "string"
        }
      ],
      "stateMutability": "view",
      "type": "function"
    },
    {
      "inputs": [],
      "name": "totalSupply",
      "outputs": [
        {
          "internalType": "uint256",
          "name": "",
          "type": "uint256"
        }
      ],
      "stateMutability": "view",
      "type": "function"
    },
    {
      "inputs": [
        {
          "internalType": "address",
          "name": "from",
          "type": "address"
        },
        {
          "internalType": "address",
          "name": "to",
          "type": "address"
        },
        {
          "internalType": "uint256",
          "name": "tokenId",
          "type": "uint256"
        }
      ],
      "name": "transferFrom",
      "outputs": [],
      "stateMutability": "nonpayable",
      "type": "function"
    }
  ],
  "bytecode": "0x60806040523480156200001157600080fd5b506040518060400160405280600881526020017f556e69746f7069610000000000000000000000000000000000000000000000008152506040518060400160405280600381526020017f5554500000000000000000000000000000000000000000000000000000000000815250816000908051906020019062000096929190620000e5565b508060019080519060200190620000af929190620000e5565b505050620000c9600a620000cf60201b62000ccf1760201c565b620001fa565b6001816000016000828254019250508190555050565b828054620000f39062000195565b90600052602060002090601f01602090048101928262000117576000855562000163565b82601f106200013257805160ff191683800117855562000163565b8280016001018555821562000163579182015b828111156200016257825182559160200191906001019062000145565b5b50905062000172919062000176565b5090565b5b808211156200019157600081600090555060010162000177565b5090565b60006002820490506001821680620001ae57607f821691505b60208210811415620001c557620001c4620001cb565b5b50919050565b7f4e487b7100000000000000000000000000000000000000000000000000000000600052602260045260246000fd5b613175806200020a6000396000f3fe6080604052600436106101095760003560e01c80634f6ccce71161009557806395d89b411161006457806395d89b41146103a6578063a22cb465146103d1578063b88d4fde146103fa578063c87b56dd14610423578063e985e9c51461046057610109565b80634f6ccce7146102d35780636352211e1461031057806370a082311461034d5780638e9253f91461038a57610109565b806318160ddd116100dc57806318160ddd146101dc57806323b872dd146102075780632f745c591461023057806342842e0e1461026d5780634c76badb1461029657610109565b806301ffc9a71461010e57806306fdde031461014b578063081812fc14610176578063095ea7b3146101b3575b600080fd5b34801561011a57600080fd5b50610135600480360381019061013091906122a5565b61049d565b60405161014291906126f5565b60405180910390f35b34801561015757600080fd5b506101606104af565b60405161016d9190612710565b60405180910390f35b34801561018257600080fd5b5061019d600480360381019061019891906122f7565b610541565b6040516101aa9190612657565b60405180910390f35b3480156101bf57600080fd5b506101da60048036038101906101d59190612269565b610587565b005b3480156101e857600080fd5b506101f161069f565b6040516101fe91906128f2565b60405180910390f35b34801561021357600080fd5b5061022e60048036038101906102299190612163565b6106ac565b005b34801561023c57600080fd5b5061025760048036038101906102529190612269565b61070c565b60405161026491906128f2565b60405180910390f35b34801561027957600080fd5b50610294600480360381019061028f9190612163565b6107b1565b005b3480156102a257600080fd5b506102bd60048036038101906102b891906122f7565b6107d1565b6040516102ca919061290d565b60405180910390f35b3480156102df57600080fd5b506102fa60048036038101906102f591906122f7565b6107f1565b60405161030791906128f2565b60405180910390f35b34801561031c57600080fd5b50610337600480360381019061033291906122f7565b610888565b6040516103449190612657565b60405180910390f35b34801561035957600080fd5b50610374600480360381019061036f91906120fe565b61093a565b60405161038191906128f2565b60405180910390f35b6103a4600480360381019061039f9190612320565b6109f2565b005b3480156103b257600080fd5b506103bb610ac8565b6040516103c89190612710565b60405180910390f35b3480156103dd57600080fd5b506103f860048036038101906103f3919061222d565b610b5a565b005b34801561040657600080fd5b50610421600480360381019061041c91906121b2565b610b70565b005b34801561042f57600080fd5b5061044a600480360381019061044591906122f7565b610bd2565b6040516104579190612710565b60405180910390f35b34801561046c57600080fd5b5061048760048036038101906104829190612127565b610c3b565b60405161049491906126f5565b60405180910390f35b60006104a882610ce5565b9050919050565b6060600080546104be90612b3f565b80601f01602080910402602001604051908101604052809291908181526020018280546104ea90612b3f565b80156105375780601f1061050c57610100808354040283529160200191610537565b820191906000526020600020905b81548152906001019060200180831161051a57829003601f168201915b5050505050905090565b600061054c82610d5f565b6004600083815260200190815260200160002060009054906101000a900473ffffffffffffffffffffffffffffffffffffffff169050919050565b600061059282610888565b90508073ffffffffffffffffffffffffffffffffffffffff168373ffffffffffffffffffffffffffffffffffffffff161415610603576040517f08c379a00000000000000000000000000000000000000000000000000000000081526004016105fa90612892565b60405180910390fd5b8073ffffffffffffffffffffffffffffffffffffffff16610622610daa565b73ffffffffffffffffffffffffffffffffffffffff16148061065157506106508161064b610daa565b610c3b565b5b610690576040517f08c379a000000000000000000000000000000000000000000000000000000000815260040161068790612832565b60405180910390fd5b61069a8383610db2565b505050565b6000600880549050905090565b6106bd6106b7610daa565b82610e6b565b6106fc576040517f08c379a00000000000000000000000000000000000000000000000000000000081526004016106f3906128d2565b60405180910390fd5b610707838383610f00565b505050565b60006107178361093a565b8210610758576040517f08c379a000000000000000000000000000000000000000000000000000000000815260040161074f90612732565b60405180910390fd5b600660008473ffffffffffffffffffffffffffffffffffffffff1673ffffffffffffffffffffffffffffffffffffffff168152602001908152602001600020600083815260200190815260200160002054905092915050565b6107cc83838360405180602001604052806000815250610b70565b505050565b600b6020528060005260406000206000915054906101000a900460ff1681565b60006107fb61069f565b821061083c576040517f08c379a0000000000000000000000000000000000000000000000000000000008152600401610833906128b2565b60405180910390fd5b60088281548110610876577f4e487b7100000000000000000000000000000000000000000000000000000000600052603260045260246000fd5b90600052602060002001549050919050565b6000806002600084815260200190815260200160002060009054906101000a900473ffffffffffffffffffffffffffffffffffffffff169050600073ffffffffffffffffffffffffffffffffffffffff168173ffffffffffffffffffffffffffffffffffffffff161415610931576040517f08c379a000000000000000000000000000000000000000000000000000000000815260040161092890612872565b60405180910390fd5b80915050919050565b60008073ffffffffffffffffffffffffffffffffffffffff168273ffffffffffffffffffffffffffffffffffffffff1614156109ab576040517f08c379a00000000000000000000000000000000000000000000000000000000081526004016109a290612812565b60405180910390fd5b600360008373ffffffffffffffffffffffffffffffffffffffff1673ffffffffffffffffffffffffffffffffffffffff168152602001908152602001600020549050919050565b66470de4df8200003414610a3b576040517f08c379a0000000000000000000000000000000000000000000000000000000008152600401610a3290612772565b60405180910390fd5b6000610a47600a611167565b9050610a533382611175565b81600b600083815260200190815260200160002060006101000a81548160ff021916908360ff160217905550610a89600a610ccf565b7f7dca587ce38fe0cd0411e1b88539280e9d63747c7c0e706e339847f97a52059a338284604051610abc939291906126be565b60405180910390a15050565b606060018054610ad790612b3f565b80601f0160208091040260200160405190810160405280929190818152602001828054610b0390612b3f565b8015610b505780601f10610b2557610100808354040283529160200191610b50565b820191906000526020600020905b815481529060010190602001808311610b3357829003601f168201915b5050505050905090565b610b6c610b65610daa565b8383611193565b5050565b610b81610b7b610daa565b83610e6b565b610bc0576040517f08c379a0000000000000000000000000000000000000000000000000000000008152600401610bb7906128d2565b60405180910390fd5b610bcc84848484611300565b50505050565b60606000600b600084815260200190815260200160002060009054906101000a900460ff1690506000610c078260ff1661135c565b604051602001610c179190612635565b6040516020818303038152906040529050610c3181611509565b8092505050919050565b6000600560008473ffffffffffffffffffffffffffffffffffffffff1673ffffffffffffffffffffffffffffffffffffffff16815260200190815260200160002060008373ffffffffffffffffffffffffffffffffffffffff1673ffffffffffffffffffffffffffffffffffffffff16815260200190815260200160002060009054906101000a900460ff16905092915050565b6001816000016000828254019250508190555050565b60007f780e9d63000000000000000000000000000000000000000000000000000000007bffffffffffffffffffffffffffffffffffffffffffffffffffffffff1916827bffffffffffffffffffffffffffffffffffffffffffffffffffffffff19161480610d585750610d57826115a2565b5b9050919050565b610d6881611684565b610da7576040517f08c379a0000000000000000000000000000000000000000000000000000000008152600401610d9e90612872565b60405180910390fd5b50565b600033905090565b816004600083815260200190815260200160002060006101000a81548173ffffffffffffffffffffffffffffffffffffffff021916908373ffffffffffffffffffffffffffffffffffffffff160217905550808273ffffffffffffffffffffffffffffffffffffffff16610e2583610888565b73ffffffffffffffffffffffffffffffffffffffff167f8c5be1e5ebec7d5bd14f71427d1e84f3dd0314c0f7b2291e5b200ac8c7c3b92560405160405180910390a45050565b600080610e7783610888565b90508073ffffffffffffffffffffffffffffffffffffffff168473ffffffffffffffffffffffffffffffffffffffff161480610eb95750610eb88185610c3b565b5b80610ef757508373ffffffffffffffffffffffffffffffffffffffff16610edf84610541565b73ffffffffffffffffffffffffffffffffffffffff16145b91505092915050565b8273ffffffffffffffffffffffffffffffffffffffff16610f2082610888565b73ffffffffffffffffffffffffffffffffffffffff1614610f76576040517f08c379a0000000000000000000000000000000000000000000000000000000008152600401610f6d90612792565b60405180910390fd5b600073ffffffffffffffffffffffffffffffffffffffff168273ffffffffffffffffffffffffffffffffffffffff161415610fe6576040517f08c379a0000000000000000000000000000000000000000000000000000000008152600401610fdd906127d2565b60405180910390fd5b610ff18383836116f0565b610ffc600082610db2565b6001600360008573ffffffffffffffffffffffffffffffffffffffff1673ffffffffffffffffffffffffffffffffffffffff168152602001908152602001600020600082825461104c9190612a48565b925050819055506001600360008473ffffffffffffffffffffffffffffffffffffffff1673ffffffffffffffffffffffffffffffffffffffff16815260200190815260200160002060008282546110a391906129c1565b92505081905550816002600083815260200190815260200160002060006101000a81548173ffffffffffffffffffffffffffffffffffffffff021916908373ffffffffffffffffffffffffffffffffffffffff160217905550808273ffffffffffffffffffffffffffffffffffffffff168473ffffffffffffffffffffffffffffffffffffffff167fddf252ad1be2c89b69c2b068fc378daa952ba7f163c4a11628f55a4df523b3ef60405160405180910390a4611162838383611700565b505050565b600081600001549050919050565b61118f828260405180602001604052806000815250611705565b5050565b8173ffffffffffffffffffffffffffffffffffffffff168373ffffffffffffffffffffffffffffffffffffffff161415611202576040517f08c379a00000000000000000000000000000000000000000000000000000000081526004016111f9906127f2565b60405180910390fd5b80600560008573ffffffffffffffffffffffffffffffffffffffff1673ffffffffffffffffffffffffffffffffffffffff16815260200190815260200160002060008473ffffffffffffffffffffffffffffffffffffffff1673ffffffffffffffffffffffffffffffffffffffff16815260200190815260200160002060006101000a81548160ff0219169083151502179055508173ffffffffffffffffffffffffffffffffffffffff168373ffffffffffffffffffffffffffffffffffffffff167f17307eab39ab6107e8899845ad3d59bd9653f200f220920489ca2b5937696c31836040516112f391906126f5565b60405180910390a3505050565b61130b848484610f00565b61131784848484611760565b611356576040517f08c379a000000000000000000000000000000000000000000000000000000000815260040161134d90612752565b60405180910390fd5b50505050565b606060008214156113a4576040518060400160405280600181526020017f30000000000000000000000000000000000000000000000000000000000000008152509050611504565b600082905060005b600082146113d65780806113bf90612ba2565b915050600a826113cf9190612a17565b91506113ac565b60008167ffffffffffffffff811115611418577f4e487b7100000000000000000000000000000000000000000000000000000000600052604160045260246000fd5b6040519080825280601f01601f19166020018201604052801561144a5781602001600182028036833780820191505090505b5090505b600085146114fd576001826114639190612a48565b9150600a856114729190612beb565b603061147e91906129c1565b60f81b8183815181106114ba577f4e487b7100000000000000000000000000000000000000000000000000000000600052603260045260246000fd5b60200101907effffffffffffffffffffffffffffffffffffffffffffffffffffffffffffff1916908160001a905350600a856114f69190612a17565b945061144e565b8093505050505b919050565b61159f8160405160240161151d9190612710565b6040516020818303038152906040527f41304fac000000000000000000000000000000000000000000000000000000007bffffffffffffffffffffffffffffffffffffffffffffffffffffffff19166020820180517bffffffffffffffffffffffffffffffffffffffffffffffffffffffff83818316178352505050506118f7565b50565b60007f80ac58cd000000000000000000000000000000000000000000000000000000007bffffffffffffffffffffffffffffffffffffffffffffffffffffffff1916827bffffffffffffffffffffffffffffffffffffffffffffffffffffffff1916148061166d57507f5b5e139f000000000000000000000000000000000000000000000000000000007bffffffffffffffffffffffffffffffffffffffffffffffffffffffff1916827bffffffffffffffffffffffffffffffffffffffffffffffffffffffff1916145b8061167d575061167c82611920565b5b9050919050565b60008073ffffffffffffffffffffffffffffffffffffffff166002600084815260200190815260200160002060009054906101000a900473ffffffffffffffffffffffffffffffffffffffff1673ffffffffffffffffffffffffffffffffffffffff1614159050919050565b6116fb83838361198a565b505050565b505050565b61170f8383611a9e565b61171c6000848484611760565b61175b576040517f08c379a000000000000000000000000000000000000000000000000000000000815260040161175290612752565b60405180910390fd5b505050565b60006117818473ffffffffffffffffffffffffffffffffffffffff16611c78565b156118ea578373ffffffffffffffffffffffffffffffffffffffff1663150b7a026117aa610daa565b8786866040518563ffffffff1660e01b81526004016117cc9493929190612672565b602060405180830381600087803b1580156117e657600080fd5b505af192505050801561181757506040513d601f19601f8201168201806040525081019061181491906122ce565b60015b61189a573d8060008114611847576040519150601f19603f3d011682016040523d82523d6000602084013e61184c565b606091505b50600081511415611892576040517f08c379a000000000000000000000000000000000000000000000000000000000815260040161188990612752565b60405180910390fd5b805181602001fd5b63150b7a0260e01b7bffffffffffffffffffffffffffffffffffffffffffffffffffffffff1916817bffffffffffffffffffffffffffffffffffffffffffffffffffffffff1916149150506118ef565b600190505b949350505050565b60008151905060006a636f6e736f6c652e6c6f679050602083016000808483855afa5050505050565b60007f01ffc9a7000000000000000000000000000000000000000000000000000000007bffffffffffffffffffffffffffffffffffffffffffffffffffffffff1916827bffffffffffffffffffffffffffffffffffffffffffffffffffffffff1916149050919050565b611995838383611c9b565b600073ffffffffffffffffffffffffffffffffffffffff168373ffffffffffffffffffffffffffffffffffffffff1614156119d8576119d381611ca0565b611a17565b8173ffffffffffffffffffffffffffffffffffffffff168373ffffffffffffffffffffffffffffffffffffffff1614611a1657611a158382611ce9565b5b5b600073ffffffffffffffffffffffffffffffffffffffff168273ffffffffffffffffffffffffffffffffffffffff161415611a5a57611a5581611e56565b611a99565b8273ffffffffffffffffffffffffffffffffffffffff168273ffffffffffffffffffffffffffffffffffffffff1614611a9857611a978282611f99565b5b5b505050565b600073ffffffffffffffffffffffffffffffffffffffff168273ffffffffffffffffffffffffffffffffffffffff161415611b0e576040517f08c379a0000000000000000000000000000000000000000000000000000000008152600401611b0590612852565b60405180910390fd5b611b1781611684565b15611b57576040517f08c379a0000000000000000000000000000000000000000000000000000000008152600401611b4e906127b2565b60405180910390fd5b611b63600083836116f0565b6001600360008473ffffffffffffffffffffffffffffffffffffffff1673ffffffffffffffffffffffffffffffffffffffff1681526020019081526020016000206000828254611bb391906129c1565b92505081905550816002600083815260200190815260200160002060006101000a81548173ffffffffffffffffffffffffffffffffffffffff021916908373ffffffffffffffffffffffffffffffffffffffff160217905550808273ffffffffffffffffffffffffffffffffffffffff16600073ffffffffffffffffffffffffffffffffffffffff167fddf252ad1be2c89b69c2b068fc378daa952ba7f163c4a11628f55a4df523b3ef60405160405180910390a4611c7460008383611700565b5050565b6000808273ffffffffffffffffffffffffffffffffffffffff163b119050919050565b505050565b6008805490506009600083815260200190815260200160002081905550600881908060018154018082558091505060019003906000526020600020016000909190919091505550565b60006001611cf68461093a565b611d009190612a48565b9050600060076000848152602001908152602001600020549050818114611de5576000600660008673ffffffffffffffffffffffffffffffffffffffff1673ffffffffffffffffffffffffffffffffffffffff168152602001908152602001600020600084815260200190815260200160002054905080600660008773ffffffffffffffffffffffffffffffffffffffff1673ffffffffffffffffffffffffffffffffffffffff168152602001908152602001600020600084815260200190815260200160002081905550816007600083815260200190815260200160002081905550505b6007600084815260200190815260200160002060009055600660008573ffffffffffffffffffffffffffffffffffffffff1673ffffffffffffffffffffffffffffffffffffffff16815260200190815260200160002060008381526020019081526020016000206000905550505050565b60006001600880549050611e6a9190612a48565b9050600060096000848152602001908152602001600020549050600060088381548110611ec0577f4e487b7100000000000000000000000000000000000000000000000000000000600052603260045260246000fd5b906000526020600020015490508060088381548110611f08577f4e487b7100000000000000000000000000000000000000000000000000000000600052603260045260246000fd5b906000526020600020018190555081600960008381526020019081526020016000208190555060096000858152602001908152602001600020600090556008805480611f7d577f4e487b7100000000000000000000000000000000000000000000000000000000600052603160045260246000fd5b6001900381819060005260206000200160009055905550505050565b6000611fa48361093a565b905081600660008573ffffffffffffffffffffffffffffffffffffffff1673ffffffffffffffffffffffffffffffffffffffff168152602001908152602001600020600083815260200190815260200160002081905550806007600084815260200190815260200160002081905550505050565b600061202b6120268461294d565b612928565b90508281526020810184848401111561204357600080fd5b61204e848285612afd565b509392505050565b600081359050612065816130cc565b92915050565b60008135905061207a816130e3565b92915050565b60008135905061208f816130fa565b92915050565b6000815190506120a4816130fa565b92915050565b600082601f8301126120bb57600080fd5b81356120cb848260208601612018565b91505092915050565b6000813590506120e381613111565b92915050565b6000813590506120f881613128565b92915050565b60006020828403121561211057600080fd5b600061211e84828501612056565b91505092915050565b6000806040838503121561213a57600080fd5b600061214885828601612056565b925050602061215985828601612056565b9150509250929050565b60008060006060848603121561217857600080fd5b600061218686828701612056565b935050602061219786828701612056565b92505060406121a8868287016120d4565b9150509250925092565b600080600080608085870312156121c857600080fd5b60006121d687828801612056565b94505060206121e787828801612056565b93505060406121f8878288016120d4565b925050606085013567ffffffffffffffff81111561221557600080fd5b612221878288016120aa565b91505092959194509250565b6000806040838503121561224057600080fd5b600061224e85828601612056565b925050602061225f8582860161206b565b9150509250929050565b6000806040838503121561227c57600080fd5b600061228a85828601612056565b925050602061229b858286016120d4565b9150509250929050565b6000602082840312156122b757600080fd5b60006122c584828501612080565b91505092915050565b6000602082840312156122e057600080fd5b60006122ee84828501612095565b91505092915050565b60006020828403121561230957600080fd5b6000612317848285016120d4565b91505092915050565b60006020828403121561233257600080fd5b6000612340848285016120e9565b91505092915050565b61235281612a7c565b82525050565b61236181612a8e565b82525050565b60006123728261297e565b61237c8185612994565b935061238c818560208601612b0c565b61239581612cd8565b840191505092915050565b60006123ab82612989565b6123b581856129a5565b93506123c5818560208601612b0c565b6123ce81612cd8565b840191505092915050565b60006123e482612989565b6123ee81856129b6565b93506123fe818560208601612b0c565b80840191505092915050565b6000612417602b836129a5565b915061242282612ce9565b604082019050919050565b600061243a6032836129a5565b915061244582612d38565b604082019050919050565b600061245d600d836129a5565b915061246882612d87565b602082019050919050565b60006124806025836129a5565b915061248b82612db0565b604082019050919050565b60006124a3601c836129a5565b91506124ae82612dff565b602082019050919050565b60006124c66024836129a5565b91506124d182612e28565b604082019050919050565b60006124e96019836129a5565b91506124f482612e77565b602082019050919050565b600061250c6029836129a5565b915061251782612ea0565b604082019050919050565b600061252f603e836129a5565b915061253a82612eef565b604082019050919050565b60006125526020836129a5565b915061255d82612f3e565b602082019050919050565b60006125756018836129a5565b915061258082612f67565b602082019050919050565b60006125986021836129a5565b91506125a382612f90565b604082019050919050565b60006125bb602c836129a5565b91506125c682612fdf565b604082019050919050565b60006125de6032836129b6565b91506125e98261302e565b603282019050919050565b6000612601602e836129a5565b915061260c8261307d565b604082019050919050565b61262081612ae6565b82525050565b61262f81612af0565b82525050565b6000612640826125d1565b915061264c82846123d9565b915081905092915050565b600060208201905061266c6000830184612349565b92915050565b60006080820190506126876000830187612349565b6126946020830186612349565b6126a16040830185612617565b81810360608301526126b38184612367565b905095945050505050565b60006060820190506126d36000830186612349565b6126e06020830185612617565b6126ed6040830184612626565b949350505050565b600060208201905061270a6000830184612358565b92915050565b6000602082019050818103600083015261272a81846123a0565b905092915050565b6000602082019050818103600083015261274b8161240a565b9050919050565b6000602082019050818103600083015261276b8161242d565b9050919050565b6000602082019050818103600083015261278b81612450565b9050919050565b600060208201905081810360008301526127ab81612473565b9050919050565b600060208201905081810360008301526127cb81612496565b9050919050565b600060208201905081810360008301526127eb816124b9565b9050919050565b6000602082019050818103600083015261280b816124dc565b9050919050565b6000602082019050818103600083015261282b816124ff565b9050919050565b6000602082019050818103600083015261284b81612522565b9050919050565b6000602082019050818103600083015261286b81612545565b9050919050565b6000602082019050818103600083015261288b81612568565b9050919050565b600060208201905081810360008301526128ab8161258b565b9050919050565b600060208201905081810360008301526128cb816125ae565b9050919050565b600060208201905081810360008301526128eb816125f4565b9050919050565b60006020820190506129076000830184612617565b92915050565b60006020820190506129226000830184612626565b92915050565b6000612932612943565b905061293e8282612b71565b919050565b6000604051905090565b600067ffffffffffffffff82111561296857612967612ca9565b5b61297182612cd8565b9050602081019050919050565b600081519050919050565b600081519050919050565b600082825260208201905092915050565b600082825260208201905092915050565b600081905092915050565b60006129cc82612ae6565b91506129d783612ae6565b9250827fffffffffffffffffffffffffffffffffffffffffffffffffffffffffffffffff03821115612a0c57612a0b612c1c565b5b828201905092915050565b6000612a2282612ae6565b9150612a2d83612ae6565b925082612a3d57612a3c612c4b565b5b828204905092915050565b6000612a5382612ae6565b9150612a5e83612ae6565b925082821015612a7157612a70612c1c565b5b828203905092915050565b6000612a8782612ac6565b9050919050565b60008115159050919050565b60007fffffffff0000000000000000000000000000000000000000000000000000000082169050919050565b600073ffffffffffffffffffffffffffffffffffffffff82169050919050565b6000819050919050565b600060ff82169050919050565b82818337600083830152505050565b60005b83811015612b2a578082015181840152602081019050612b0f565b83811115612b39576000848401525b50505050565b60006002820490506001821680612b5757607f821691505b60208210811415612b6b57612b6a612c7a565b5b50919050565b612b7a82612cd8565b810181811067ffffffffffffffff82111715612b9957612b98612ca9565b5b80604052505050565b6000612bad82612ae6565b91507fffffffffffffffffffffffffffffffffffffffffffffffffffffffffffffffff821415612be057612bdf612c1c565b5b600182019050919050565b6000612bf682612ae6565b9150612c0183612ae6565b925082612c1157612c10612c4b565b5b828206905092915050565b7f4e487b7100000000000000000000000000000000000000000000000000000000600052601160045260246000fd5b7f4e487b7100000000000000000000000000000000000000000000000000000000600052601260045260246000fd5b7f4e487b7100000000000000000000000000000000000000000000000000000000600052602260045260246000fd5b7f4e487b7100000000000000000000000000000000000000000000000000000000600052604160045260246000fd5b6000601f19601f8301169050919050565b7f455243373231456e756d657261626c653a206f776e657220696e646578206f7560008201527f74206f6620626f756e6473000000000000000000000000000000000000000000602082015250565b7f4552433732313a207472616e7366657220746f206e6f6e20455243373231526560008201527f63656976657220696d706c656d656e7465720000000000000000000000000000602082015250565b7f53656e6420302e30322045544800000000000000000000000000000000000000600082015250565b7f4552433732313a207472616e736665722066726f6d20696e636f72726563742060008201527f6f776e6572000000000000000000000000000000000000000000000000000000602082015250565b7f4552433732313a20746f6b656e20616c7265616479206d696e74656400000000600082015250565b7f4552433732313a207472616e7366657220746f20746865207a65726f2061646460008201527f7265737300000000000000000000000000000000000000000000000000000000602082015250565b7f4552433732313a20617070726f766520746f2063616c6c657200000000000000600082015250565b7f4552433732313a2061646472657373207a65726f206973206e6f74206120766160008201527f6c6964206f776e65720000000000000000000000000000000000000000000000602082015250565b7f4552433732313a20617070726f76652063616c6c6572206973206e6f7420746f60008201527f6b656e206f776e6572206e6f7220617070726f76656420666f7220616c6c0000602082015250565b7f4552433732313a206d696e7420746f20746865207a65726f2061646472657373600082015250565b7f4552433732313a20696e76616c696420746f6b656e2049440000000000000000600082015250565b7f4552433732313a20617070726f76616c20746f2063757272656e74206f776e6560008201527f7200000000000000000000000000000000000000000000000000000000000000602082015250565b7f455243373231456e756d657261626c653a20676c6f62616c20696e646578206f60008201527f7574206f6620626f756e64730000000000000000000000000000000000000000602082015250565b7f68747470733a2f2f756e69746f7069616261636b656e642e6f6e72656e64657260008201527f2e636f6d2f6170692f6d657461646174612f0000000000000000000000000000602082015250565b7f4552433732313a2063616c6c6572206973206e6f7420746f6b656e206f776e6560008201527f72206e6f7220617070726f766564000000000000000000000000000000000000602082015250565b6130d581612a7c565b81146130e057600080fd5b50565b6130ec81612a8e565b81146130f757600080fd5b50565b61310381612a9a565b811461310e57600080fd5b50565b61311a81612ae6565b811461312557600080fd5b50565b61313181612af0565b811461313c57600080fd5b5056fea264697066735822122053e520229e322822a4d68b98ed368936a2f062191cae0c1eec16e91f2adbbcca64736f6c63430008040033",
  "linkReferences": {},
  "deployedLinkReferences": {}
}