{
  "_format": "hh-sol-artifact-1",
  "contractName": "NFT",
  "sourceName": "contracts/NFT.sol",
  "abi": [
    {
      "inputs": [],
      "stateMutability": "nonpayable",
      "type": "constructor"
    },
    {
      "anonymous": false,
      "inputs": [
        {
          "indexed": true,
          "internalType": "address",
          "name": "owner",
          "type": "address"
        },
        {
          "indexed": true,
          "internalType": "address",
          "name": "approved",
          "type": "address"
        },
        {
          "indexed": true,
          "internalType": "uint256",
          "name": "tokenId",
          "type": "uint256"
        }
      ],
      "name": "Approval",
      "type": "event"
    },
    {
      "anonymous": false,
      "inputs": [
        {
          "indexed": true,
          "internalType": "address",
          "name": "owner",
          "type": "address"
        },
        {
          "indexed": true,
          "internalType": "address",
          "name": "operator",
          "type": "address"
        },
        {
          "indexed": false,
          "internalType": "bool",
          "name": "approved",
          "type": "bool"
        }
      ],
      "name": "ApprovalForAll",
      "type": "event"
    },
    {
      "anonymous": false,
      "inputs": [
        {
          "indexed": false,
          "internalType": "address",
          "name": "_sender",
          "type": "address"
        },
        {
          "indexed": false,
          "internalType": "uint256",
          "name": "_tokenId",
          "type": "uint256"
        },
        {
          "indexed": false,
          "internalType": "uint8",
          "name": "_planetIndex",
          "type": "uint8"
        }
      ],
      "name": "PlanetMinted",
      "type": "event"
    },
    {
      "anonymous": false,
      "inputs": [
        {
          "indexed": true,
          "internalType": "address",
          "name": "from",
          "type": "address"
        },
        {
          "indexed": true,
          "internalType": "address",
          "name": "to",
          "type": "address"
        },
        {
          "indexed": true,
          "internalType": "uint256",
          "name": "tokenId",
          "type": "uint256"
        }
      ],
      "name": "Transfer",
      "type": "event"
    },
    {
      "inputs": [
        {
          "internalType": "address",
          "name": "to",
          "type": "address"
        },
        {
          "internalType": "uint256",
          "name": "tokenId",
          "type": "uint256"
        }
      ],
      "name": "approve",
      "outputs": [],
      "stateMutability": "nonpayable",
      "type": "function"
    },
    {
      "inputs": [
        {
          "internalType": "address",
          "name": "owner",
          "type": "address"
        }
      ],
      "name": "balanceOf",
      "outputs": [
        {
          "internalType": "uint256",
          "name": "",
          "type": "uint256"
        }
      ],
      "stateMutability": "view",
      "type": "function"
    },
    {
      "inputs": [
        {
          "internalType": "uint256",
          "name": "tokenId",
          "type": "uint256"
        }
      ],
      "name": "burn",
      "outputs": [],
      "stateMutability": "nonpayable",
      "type": "function"
    },
    {
      "inputs": [
        {
          "internalType": "uint256",
          "name": "tokenId",
          "type": "uint256"
        }
      ],
      "name": "getApproved",
      "outputs": [
        {
          "internalType": "address",
          "name": "",
          "type": "address"
        }
      ],
      "stateMutability": "view",
      "type": "function"
    },
    {
      "inputs": [
        {
          "internalType": "address",
          "name": "owner",
          "type": "address"
        },
        {
          "internalType": "address",
          "name": "operator",
          "type": "address"
        }
      ],
      "name": "isApprovedForAll",
      "outputs": [
        {
          "internalType": "bool",
          "name": "",
          "type": "bool"
        }
      ],
      "stateMutability": "view",
      "type": "function"
    },
    {
      "inputs": [
        {
          "internalType": "uint8",
          "name": "_planetIndex",
          "type": "uint8"
        }
      ],
      "name": "mintPlanet",
      "outputs": [],
      "stateMutability": "payable",
      "type": "function"
    },
    {
      "inputs": [],
      "name": "name",
      "outputs": [
        {
          "internalType": "string",
          "name": "",
          "type": "string"
        }
      ],
      "stateMutability": "view",
      "type": "function"
    },
    {
      "inputs": [
        {
          "internalType": "uint256",
          "name": "tokenId",
          "type": "uint256"
        }
      ],
      "name": "ownerOf",
      "outputs": [
        {
          "internalType": "address",
          "name": "",
          "type": "address"
        }
      ],
      "stateMutability": "view",
      "type": "function"
    },
    {
      "inputs": [
        {
          "internalType": "address",
          "name": "from",
          "type": "address"
        },
        {
          "internalType": "address",
          "name": "to",
          "type": "address"
        },
        {
          "internalType": "uint256",
          "name": "tokenId",
          "type": "uint256"
        }
      ],
      "name": "safeTransferFrom",
      "outputs": [],
      "stateMutability": "nonpayable",
      "type": "function"
    },
    {
      "inputs": [
        {
          "internalType": "address",
          "name": "from",
          "type": "address"
        },
        {
          "internalType": "address",
          "name": "to",
          "type": "address"
        },
        {
          "internalType": "uint256",
          "name": "tokenId",
          "type": "uint256"
        },
        {
          "internalType": "bytes",
          "name": "data",
          "type": "bytes"
        }
      ],
      "name": "safeTransferFrom",
      "outputs": [],
      "stateMutability": "nonpayable",
      "type": "function"
    },
    {
      "inputs": [
        {
          "internalType": "address",
          "name": "operator",
          "type": "address"
        },
        {
          "internalType": "bool",
          "name": "approved",
          "type": "bool"
        }
      ],
      "name": "setApprovalForAll",
      "outputs": [],
      "stateMutability": "nonpayable",
      "type": "function"
    },
    {
      "inputs": [
        {
          "internalType": "bytes4",
          "name": "interfaceId",
          "type": "bytes4"
        }
      ],
      "name": "supportsInterface",
      "outputs": [
        {
          "internalType": "bool",
          "name": "",
          "type": "bool"
        }
      ],
      "stateMutability": "view",
      "type": "function"
    },
    {
      "inputs": [],
      "name": "symbol",
      "outputs": [
        {
          "internalType": "string",
          "name": "",
          "type": "string"
        }
      ],
      "stateMutability": "view",
      "type": "function"
    },
    {
      "inputs": [
        {
          "internalType": "uint256",
          "name": "index",
          "type": "uint256"
        }
      ],
      "name": "tokenByIndex",
      "outputs": [
        {
          "internalType": "uint256",
          "name": "",
          "type": "uint256"
        }
      ],
      "stateMutability": "view",
      "type": "function"
    },
    {
      "inputs": [
        {
          "internalType": "uint256",
          "name": "",
          "type": "uint256"
        }
      ],
      "name": "tokenIdToPlanetIndex",
      "outputs": [
        {
          "internalType": "uint8",
          "name": "",
          "type": "uint8"
        }
      ],
      "stateMutability": "view",
      "type": "function"
    },
    {
      "inputs": [
        {
          "internalType": "address",
          "name": "owner",
          "type": "address"
        },
        {
          "internalType": "uint256",
          "name": "index",
          "type": "uint256"
        }
      ],
      "name": "tokenOfOwnerByIndex",
      "outputs": [
        {
          "internalType": "uint256",
          "name": "",
          "type": "uint256"
        }
      ],
      "stateMutability": "view",
      "type": "function"
    },
    {
      "inputs": [
        {
          "internalType": "uint256",
          "name": "_tokenId",
          "type": "uint256"
        }
      ],
      "name": "tokenURI",
      "outputs": [
        {
          "internalType": "string",
          "name": "",
          "type": "string"
        }
      ],
      "stateMutability": "view",
      "type": "function"
    },
    {
      "inputs": [],
      "name": "totalSupply",
      "outputs": [
        {
          "internalType": "uint256",
          "name": "",
          "type": "uint256"
        }
      ],
      "stateMutability": "view",
      "type": "function"
    },
    {
      "inputs": [
        {
          "internalType": "address",
          "name": "from",
          "type": "address"
        },
        {
          "internalType": "address",
          "name": "to",
          "type": "address"
        },
        {
          "internalType": "uint256",
          "name": "tokenId",
          "type": "uint256"
        }
      ],
      "name": "transferFrom",
      "outputs": [],
      "stateMutability": "nonpayable",
      "type": "function"
    }
  ],
  "bytecode": "0x60806040523480156200001157600080fd5b506040518060400160405280600881526020017f556e69746f7069610000000000000000000000000000000000000000000000008152506040518060400160405280600381526020017f5554500000000000000000000000000000000000000000000000000000000000815250816000908051906020019062000096929190620000e5565b508060019080519060200190620000af929190620000e5565b505050620000c9600a620000cf60201b62000d561760201c565b620001fa565b6001816000016000828254019250508190555050565b828054620000f39062000195565b90600052602060002090601f01602090048101928262000117576000855562000163565b82601f106200013257805160ff191683800117855562000163565b8280016001018555821562000163579182015b828111156200016257825182559160200191906001019062000145565b5b50905062000172919062000176565b5090565b5b808211156200019157600081600090555060010162000177565b5090565b60006002820490506001821680620001ae57607f821691505b60208210811415620001c557620001c4620001cb565b5b50919050565b7f4e487b7100000000000000000000000000000000000000000000000000000000600052602260045260246000fd5b613257806200020a6000396000f3fe6080604052600436106101145760003560e01c80634c76badb116100a057806395d89b411161006457806395d89b41146103da578063a22cb46514610405578063b88d4fde1461042e578063c87b56dd14610457578063e985e9c51461049457610114565b80634c76badb146102ca5780634f6ccce7146103075780636352211e1461034457806370a08231146103815780638e9253f9146103be57610114565b806318160ddd116100e757806318160ddd146101e757806323b872dd146102125780632f745c591461023b57806342842e0e1461027857806342966c68146102a157610114565b806301ffc9a71461011957806306fdde0314610156578063081812fc14610181578063095ea7b3146101be575b600080fd5b34801561012557600080fd5b50610140600480360381019061013b9190612387565b6104d1565b60405161014d91906127d7565b60405180910390f35b34801561016257600080fd5b5061016b6104e3565b60405161017891906127f2565b60405180910390f35b34801561018d57600080fd5b506101a860048036038101906101a391906123d9565b610575565b6040516101b59190612739565b60405180910390f35b3480156101ca57600080fd5b506101e560048036038101906101e0919061234b565b6105bb565b005b3480156101f357600080fd5b506101fc6106d3565b60405161020991906129d4565b60405180910390f35b34801561021e57600080fd5b5061023960048036038101906102349190612245565b6106e0565b005b34801561024757600080fd5b50610262600480360381019061025d919061234b565b610740565b60405161026f91906129d4565b60405180910390f35b34801561028457600080fd5b5061029f600480360381019061029a9190612245565b6107e5565b005b3480156102ad57600080fd5b506102c860048036038101906102c391906123d9565b610805565b005b3480156102d657600080fd5b506102f160048036038101906102ec91906123d9565b610861565b6040516102fe91906129ef565b60405180910390f35b34801561031357600080fd5b5061032e600480360381019061032991906123d9565b610881565b60405161033b91906129d4565b60405180910390f35b34801561035057600080fd5b5061036b600480360381019061036691906123d9565b610918565b6040516103789190612739565b60405180910390f35b34801561038d57600080fd5b506103a860048036038101906103a391906121e0565b6109ca565b6040516103b591906129d4565b60405180910390f35b6103d860048036038101906103d39190612402565b610a82565b005b3480156103e657600080fd5b506103ef610b58565b6040516103fc91906127f2565b60405180910390f35b34801561041157600080fd5b5061042c6004803603810190610427919061230f565b610bea565b005b34801561043a57600080fd5b5061045560048036038101906104509190612294565b610c00565b005b34801561046357600080fd5b5061047e600480360381019061047991906123d9565b610c62565b60405161048b91906127f2565b60405180910390f35b3480156104a057600080fd5b506104bb60048036038101906104b69190612209565b610cc2565b6040516104c891906127d7565b60405180910390f35b60006104dc82610d6c565b9050919050565b6060600080546104f290612c21565b80601f016020809104026020016040519081016040528092919081815260200182805461051e90612c21565b801561056b5780601f106105405761010080835404028352916020019161056b565b820191906000526020600020905b81548152906001019060200180831161054e57829003601f168201915b5050505050905090565b600061058082610de6565b6004600083815260200190815260200160002060009054906101000a900473ffffffffffffffffffffffffffffffffffffffff169050919050565b60006105c682610918565b90508073ffffffffffffffffffffffffffffffffffffffff168373ffffffffffffffffffffffffffffffffffffffff161415610637576040517f08c379a000000000000000000000000000000000000000000000000000000000815260040161062e90612974565b60405180910390fd5b8073ffffffffffffffffffffffffffffffffffffffff16610656610e31565b73ffffffffffffffffffffffffffffffffffffffff16148061068557506106848161067f610e31565b610cc2565b5b6106c4576040517f08c379a00000000000000000000000000000000000000000000000000000000081526004016106bb90612914565b60405180910390fd5b6106ce8383610e39565b505050565b6000600880549050905090565b6106f16106eb610e31565b82610ef2565b610730576040517f08c379a0000000000000000000000000000000000000000000000000000000008152600401610727906129b4565b60405180910390fd5b61073b838383610f87565b505050565b600061074b836109ca565b821061078c576040517f08c379a000000000000000000000000000000000000000000000000000000000815260040161078390612814565b60405180910390fd5b600660008473ffffffffffffffffffffffffffffffffffffffff1673ffffffffffffffffffffffffffffffffffffffff168152602001908152602001600020600083815260200190815260200160002054905092915050565b61080083838360405180602001604052806000815250610c00565b505050565b610816610810610e31565b82610ef2565b610855576040517f08c379a000000000000000000000000000000000000000000000000000000000815260040161084c906129b4565b60405180910390fd5b61085e816111ee565b50565b600b6020528060005260406000206000915054906101000a900460ff1681565b600061088b6106d3565b82106108cc576040517f08c379a00000000000000000000000000000000000000000000000000000000081526004016108c390612994565b60405180910390fd5b60088281548110610906577f4e487b7100000000000000000000000000000000000000000000000000000000600052603260045260246000fd5b90600052602060002001549050919050565b6000806002600084815260200190815260200160002060009054906101000a900473ffffffffffffffffffffffffffffffffffffffff169050600073ffffffffffffffffffffffffffffffffffffffff168173ffffffffffffffffffffffffffffffffffffffff1614156109c1576040517f08c379a00000000000000000000000000000000000000000000000000000000081526004016109b890612954565b60405180910390fd5b80915050919050565b60008073ffffffffffffffffffffffffffffffffffffffff168273ffffffffffffffffffffffffffffffffffffffff161415610a3b576040517f08c379a0000000000000000000000000000000000000000000000000000000008152600401610a32906128f4565b60405180910390fd5b600360008373ffffffffffffffffffffffffffffffffffffffff1673ffffffffffffffffffffffffffffffffffffffff168152602001908152602001600020549050919050565b66470de4df8200003414610acb576040517f08c379a0000000000000000000000000000000000000000000000000000000008152600401610ac290612854565b60405180910390fd5b6000610ad7600a61130b565b9050610ae33382611319565b81600b600083815260200190815260200160002060006101000a81548160ff021916908360ff160217905550610b19600a610d56565b7f7dca587ce38fe0cd0411e1b88539280e9d63747c7c0e706e339847f97a52059a338284604051610b4c939291906127a0565b60405180910390a15050565b606060018054610b6790612c21565b80601f0160208091040260200160405190810160405280929190818152602001828054610b9390612c21565b8015610be05780601f10610bb557610100808354040283529160200191610be0565b820191906000526020600020905b815481529060010190602001808311610bc357829003601f168201915b5050505050905090565b610bfc610bf5610e31565b8383611337565b5050565b610c11610c0b610e31565b83610ef2565b610c50576040517f08c379a0000000000000000000000000000000000000000000000000000000008152600401610c47906129b4565b60405180910390fd5b610c5c848484846114a4565b50505050565b60606000600b600084815260200190815260200160002060009054906101000a900460ff1690506000610c978260ff16611500565b604051602001610ca79190612717565b60405160208183030381529060405290508092505050919050565b6000600560008473ffffffffffffffffffffffffffffffffffffffff1673ffffffffffffffffffffffffffffffffffffffff16815260200190815260200160002060008373ffffffffffffffffffffffffffffffffffffffff1673ffffffffffffffffffffffffffffffffffffffff16815260200190815260200160002060009054906101000a900460ff16905092915050565b6001816000016000828254019250508190555050565b60007f780e9d63000000000000000000000000000000000000000000000000000000007bffffffffffffffffffffffffffffffffffffffffffffffffffffffff1916827bffffffffffffffffffffffffffffffffffffffffffffffffffffffff19161480610ddf5750610dde826116ad565b5b9050919050565b610def8161178f565b610e2e576040517f08c379a0000000000000000000000000000000000000000000000000000000008152600401610e2590612954565b60405180910390fd5b50565b600033905090565b816004600083815260200190815260200160002060006101000a81548173ffffffffffffffffffffffffffffffffffffffff021916908373ffffffffffffffffffffffffffffffffffffffff160217905550808273ffffffffffffffffffffffffffffffffffffffff16610eac83610918565b73ffffffffffffffffffffffffffffffffffffffff167f8c5be1e5ebec7d5bd14f71427d1e84f3dd0314c0f7b2291e5b200ac8c7c3b92560405160405180910390a45050565b600080610efe83610918565b90508073ffffffffffffffffffffffffffffffffffffffff168473ffffffffffffffffffffffffffffffffffffffff161480610f405750610f3f8185610cc2565b5b80610f7e57508373ffffffffffffffffffffffffffffffffffffffff16610f6684610575565b73ffffffffffffffffffffffffffffffffffffffff16145b91505092915050565b8273ffffffffffffffffffffffffffffffffffffffff16610fa782610918565b73ffffffffffffffffffffffffffffffffffffffff1614610ffd576040517f08c379a0000000000000000000000000000000000000000000000000000000008152600401610ff490612874565b60405180910390fd5b600073ffffffffffffffffffffffffffffffffffffffff168273ffffffffffffffffffffffffffffffffffffffff16141561106d576040517f08c379a0000000000000000000000000000000000000000000000000000000008152600401611064906128b4565b60405180910390fd5b6110788383836117fb565b611083600082610e39565b6001600360008573ffffffffffffffffffffffffffffffffffffffff1673ffffffffffffffffffffffffffffffffffffffff16815260200190815260200160002060008282546110d39190612b2a565b925050819055506001600360008473ffffffffffffffffffffffffffffffffffffffff1673ffffffffffffffffffffffffffffffffffffffff168152602001908152602001600020600082825461112a9190612aa3565b92505081905550816002600083815260200190815260200160002060006101000a81548173ffffffffffffffffffffffffffffffffffffffff021916908373ffffffffffffffffffffffffffffffffffffffff160217905550808273ffffffffffffffffffffffffffffffffffffffff168473ffffffffffffffffffffffffffffffffffffffff167fddf252ad1be2c89b69c2b068fc378daa952ba7f163c4a11628f55a4df523b3ef60405160405180910390a46111e983838361180b565b505050565b60006111f982610918565b9050611207816000846117fb565b611212600083610e39565b6001600360008373ffffffffffffffffffffffffffffffffffffffff1673ffffffffffffffffffffffffffffffffffffffff16815260200190815260200160002060008282546112629190612b2a565b925050819055506002600083815260200190815260200160002060006101000a81549073ffffffffffffffffffffffffffffffffffffffff021916905581600073ffffffffffffffffffffffffffffffffffffffff168273ffffffffffffffffffffffffffffffffffffffff167fddf252ad1be2c89b69c2b068fc378daa952ba7f163c4a11628f55a4df523b3ef60405160405180910390a46113078160008461180b565b5050565b600081600001549050919050565b611333828260405180602001604052806000815250611810565b5050565b8173ffffffffffffffffffffffffffffffffffffffff168373ffffffffffffffffffffffffffffffffffffffff1614156113a6576040517f08c379a000000000000000000000000000000000000000000000000000000000815260040161139d906128d4565b60405180910390fd5b80600560008573ffffffffffffffffffffffffffffffffffffffff1673ffffffffffffffffffffffffffffffffffffffff16815260200190815260200160002060008473ffffffffffffffffffffffffffffffffffffffff1673ffffffffffffffffffffffffffffffffffffffff16815260200190815260200160002060006101000a81548160ff0219169083151502179055508173ffffffffffffffffffffffffffffffffffffffff168373ffffffffffffffffffffffffffffffffffffffff167f17307eab39ab6107e8899845ad3d59bd9653f200f220920489ca2b5937696c318360405161149791906127d7565b60405180910390a3505050565b6114af848484610f87565b6114bb8484848461186b565b6114fa576040517f08c379a00000000000000000000000000000000000000000000000000000000081526004016114f190612834565b60405180910390fd5b50505050565b60606000821415611548576040518060400160405280600181526020017f300000000000000000000000000000000000000000000000000000000000000081525090506116a8565b600082905060005b6000821461157a57808061156390612c84565b915050600a826115739190612af9565b9150611550565b60008167ffffffffffffffff8111156115bc577f4e487b7100000000000000000000000000000000000000000000000000000000600052604160045260246000fd5b6040519080825280601f01601f1916602001820160405280156115ee5781602001600182028036833780820191505090505b5090505b600085146116a1576001826116079190612b2a565b9150600a856116169190612ccd565b60306116229190612aa3565b60f81b81838151811061165e577f4e487b7100000000000000000000000000000000000000000000000000000000600052603260045260246000fd5b60200101907effffffffffffffffffffffffffffffffffffffffffffffffffffffffffffff1916908160001a905350600a8561169a9190612af9565b94506115f2565b8093505050505b919050565b60007f80ac58cd000000000000000000000000000000000000000000000000000000007bffffffffffffffffffffffffffffffffffffffffffffffffffffffff1916827bffffffffffffffffffffffffffffffffffffffffffffffffffffffff1916148061177857507f5b5e139f000000000000000000000000000000000000000000000000000000007bffffffffffffffffffffffffffffffffffffffffffffffffffffffff1916827bffffffffffffffffffffffffffffffffffffffffffffffffffffffff1916145b80611788575061178782611a02565b5b9050919050565b60008073ffffffffffffffffffffffffffffffffffffffff166002600084815260200190815260200160002060009054906101000a900473ffffffffffffffffffffffffffffffffffffffff1673ffffffffffffffffffffffffffffffffffffffff1614159050919050565b611806838383611a6c565b505050565b505050565b61181a8383611b80565b611827600084848461186b565b611866576040517f08c379a000000000000000000000000000000000000000000000000000000000815260040161185d90612834565b60405180910390fd5b505050565b600061188c8473ffffffffffffffffffffffffffffffffffffffff16611d5a565b156119f5578373ffffffffffffffffffffffffffffffffffffffff1663150b7a026118b5610e31565b8786866040518563ffffffff1660e01b81526004016118d79493929190612754565b602060405180830381600087803b1580156118f157600080fd5b505af192505050801561192257506040513d601f19601f8201168201806040525081019061191f91906123b0565b60015b6119a5573d8060008114611952576040519150601f19603f3d011682016040523d82523d6000602084013e611957565b606091505b5060008151141561199d576040517f08c379a000000000000000000000000000000000000000000000000000000000815260040161199490612834565b60405180910390fd5b805181602001fd5b63150b7a0260e01b7bffffffffffffffffffffffffffffffffffffffffffffffffffffffff1916817bffffffffffffffffffffffffffffffffffffffffffffffffffffffff1916149150506119fa565b600190505b949350505050565b60007f01ffc9a7000000000000000000000000000000000000000000000000000000007bffffffffffffffffffffffffffffffffffffffffffffffffffffffff1916827bffffffffffffffffffffffffffffffffffffffffffffffffffffffff1916149050919050565b611a77838383611d7d565b600073ffffffffffffffffffffffffffffffffffffffff168373ffffffffffffffffffffffffffffffffffffffff161415611aba57611ab581611d82565b611af9565b8173ffffffffffffffffffffffffffffffffffffffff168373ffffffffffffffffffffffffffffffffffffffff1614611af857611af78382611dcb565b5b5b600073ffffffffffffffffffffffffffffffffffffffff168273ffffffffffffffffffffffffffffffffffffffff161415611b3c57611b3781611f38565b611b7b565b8273ffffffffffffffffffffffffffffffffffffffff168273ffffffffffffffffffffffffffffffffffffffff1614611b7a57611b79828261207b565b5b5b505050565b600073ffffffffffffffffffffffffffffffffffffffff168273ffffffffffffffffffffffffffffffffffffffff161415611bf0576040517f08c379a0000000000000000000000000000000000000000000000000000000008152600401611be790612934565b60405180910390fd5b611bf98161178f565b15611c39576040517f08c379a0000000000000000000000000000000000000000000000000000000008152600401611c3090612894565b60405180910390fd5b611c45600083836117fb565b6001600360008473ffffffffffffffffffffffffffffffffffffffff1673ffffffffffffffffffffffffffffffffffffffff1681526020019081526020016000206000828254611c959190612aa3565b92505081905550816002600083815260200190815260200160002060006101000a81548173ffffffffffffffffffffffffffffffffffffffff021916908373ffffffffffffffffffffffffffffffffffffffff160217905550808273ffffffffffffffffffffffffffffffffffffffff16600073ffffffffffffffffffffffffffffffffffffffff167fddf252ad1be2c89b69c2b068fc378daa952ba7f163c4a11628f55a4df523b3ef60405160405180910390a4611d566000838361180b565b5050565b6000808273ffffffffffffffffffffffffffffffffffffffff163b119050919050565b505050565b6008805490506009600083815260200190815260200160002081905550600881908060018154018082558091505060019003906000526020600020016000909190919091505550565b60006001611dd8846109ca565b611de29190612b2a565b9050600060076000848152602001908152602001600020549050818114611ec7576000600660008673ffffffffffffffffffffffffffffffffffffffff1673ffffffffffffffffffffffffffffffffffffffff168152602001908152602001600020600084815260200190815260200160002054905080600660008773ffffffffffffffffffffffffffffffffffffffff1673ffffffffffffffffffffffffffffffffffffffff168152602001908152602001600020600084815260200190815260200160002081905550816007600083815260200190815260200160002081905550505b6007600084815260200190815260200160002060009055600660008573ffffffffffffffffffffffffffffffffffffffff1673ffffffffffffffffffffffffffffffffffffffff16815260200190815260200160002060008381526020019081526020016000206000905550505050565b60006001600880549050611f4c9190612b2a565b9050600060096000848152602001908152602001600020549050600060088381548110611fa2577f4e487b7100000000000000000000000000000000000000000000000000000000600052603260045260246000fd5b906000526020600020015490508060088381548110611fea577f4e487b7100000000000000000000000000000000000000000000000000000000600052603260045260246000fd5b90600052602060002001819055508160096000838152602001908152602001600020819055506009600085815260200190815260200160002060009055600880548061205f577f4e487b7100000000000000000000000000000000000000000000000000000000600052603160045260246000fd5b6001900381819060005260206000200160009055905550505050565b6000612086836109ca565b905081600660008573ffffffffffffffffffffffffffffffffffffffff1673ffffffffffffffffffffffffffffffffffffffff168152602001908152602001600020600083815260200190815260200160002081905550806007600084815260200190815260200160002081905550505050565b600061210d61210884612a2f565b612a0a565b90508281526020810184848401111561212557600080fd5b612130848285612bdf565b509392505050565b600081359050612147816131ae565b92915050565b60008135905061215c816131c5565b92915050565b600081359050612171816131dc565b92915050565b600081519050612186816131dc565b92915050565b600082601f83011261219d57600080fd5b81356121ad8482602086016120fa565b91505092915050565b6000813590506121c5816131f3565b92915050565b6000813590506121da8161320a565b92915050565b6000602082840312156121f257600080fd5b600061220084828501612138565b91505092915050565b6000806040838503121561221c57600080fd5b600061222a85828601612138565b925050602061223b85828601612138565b9150509250929050565b60008060006060848603121561225a57600080fd5b600061226886828701612138565b935050602061227986828701612138565b925050604061228a868287016121b6565b9150509250925092565b600080600080608085870312156122aa57600080fd5b60006122b887828801612138565b94505060206122c987828801612138565b93505060406122da878288016121b6565b925050606085013567ffffffffffffffff8111156122f757600080fd5b6123038782880161218c565b91505092959194509250565b6000806040838503121561232257600080fd5b600061233085828601612138565b92505060206123418582860161214d565b9150509250929050565b6000806040838503121561235e57600080fd5b600061236c85828601612138565b925050602061237d858286016121b6565b9150509250929050565b60006020828403121561239957600080fd5b60006123a784828501612162565b91505092915050565b6000602082840312156123c257600080fd5b60006123d084828501612177565b91505092915050565b6000602082840312156123eb57600080fd5b60006123f9848285016121b6565b91505092915050565b60006020828403121561241457600080fd5b6000612422848285016121cb565b91505092915050565b61243481612b5e565b82525050565b61244381612b70565b82525050565b600061245482612a60565b61245e8185612a76565b935061246e818560208601612bee565b61247781612dba565b840191505092915050565b600061248d82612a6b565b6124978185612a87565b93506124a7818560208601612bee565b6124b081612dba565b840191505092915050565b60006124c682612a6b565b6124d08185612a98565b93506124e0818560208601612bee565b80840191505092915050565b60006124f9602b83612a87565b915061250482612dcb565b604082019050919050565b600061251c603283612a87565b915061252782612e1a565b604082019050919050565b600061253f600d83612a87565b915061254a82612e69565b602082019050919050565b6000612562602583612a87565b915061256d82612e92565b604082019050919050565b6000612585601c83612a87565b915061259082612ee1565b602082019050919050565b60006125a8602483612a87565b91506125b382612f0a565b604082019050919050565b60006125cb601983612a87565b91506125d682612f59565b602082019050919050565b60006125ee602983612a87565b91506125f982612f82565b604082019050919050565b6000612611603e83612a87565b915061261c82612fd1565b604082019050919050565b6000612634602083612a87565b915061263f82613020565b602082019050919050565b6000612657601883612a87565b915061266282613049565b602082019050919050565b600061267a602183612a87565b915061268582613072565b604082019050919050565b600061269d602c83612a87565b91506126a8826130c1565b604082019050919050565b60006126c0603283612a98565b91506126cb82613110565b603282019050919050565b60006126e3602e83612a87565b91506126ee8261315f565b604082019050919050565b61270281612bc8565b82525050565b61271181612bd2565b82525050565b6000612722826126b3565b915061272e82846124bb565b915081905092915050565b600060208201905061274e600083018461242b565b92915050565b6000608082019050612769600083018761242b565b612776602083018661242b565b61278360408301856126f9565b81810360608301526127958184612449565b905095945050505050565b60006060820190506127b5600083018661242b565b6127c260208301856126f9565b6127cf6040830184612708565b949350505050565b60006020820190506127ec600083018461243a565b92915050565b6000602082019050818103600083015261280c8184612482565b905092915050565b6000602082019050818103600083015261282d816124ec565b9050919050565b6000602082019050818103600083015261284d8161250f565b9050919050565b6000602082019050818103600083015261286d81612532565b9050919050565b6000602082019050818103600083015261288d81612555565b9050919050565b600060208201905081810360008301526128ad81612578565b9050919050565b600060208201905081810360008301526128cd8161259b565b9050919050565b600060208201905081810360008301526128ed816125be565b9050919050565b6000602082019050818103600083015261290d816125e1565b9050919050565b6000602082019050818103600083015261292d81612604565b9050919050565b6000602082019050818103600083015261294d81612627565b9050919050565b6000602082019050818103600083015261296d8161264a565b9050919050565b6000602082019050818103600083015261298d8161266d565b9050919050565b600060208201905081810360008301526129ad81612690565b9050919050565b600060208201905081810360008301526129cd816126d6565b9050919050565b60006020820190506129e960008301846126f9565b92915050565b6000602082019050612a046000830184612708565b92915050565b6000612a14612a25565b9050612a208282612c53565b919050565b6000604051905090565b600067ffffffffffffffff821115612a4a57612a49612d8b565b5b612a5382612dba565b9050602081019050919050565b600081519050919050565b600081519050919050565b600082825260208201905092915050565b600082825260208201905092915050565b600081905092915050565b6000612aae82612bc8565b9150612ab983612bc8565b9250827fffffffffffffffffffffffffffffffffffffffffffffffffffffffffffffffff03821115612aee57612aed612cfe565b5b828201905092915050565b6000612b0482612bc8565b9150612b0f83612bc8565b925082612b1f57612b1e612d2d565b5b828204905092915050565b6000612b3582612bc8565b9150612b4083612bc8565b925082821015612b5357612b52612cfe565b5b828203905092915050565b6000612b6982612ba8565b9050919050565b60008115159050919050565b60007fffffffff0000000000000000000000000000000000000000000000000000000082169050919050565b600073ffffffffffffffffffffffffffffffffffffffff82169050919050565b6000819050919050565b600060ff82169050919050565b82818337600083830152505050565b60005b83811015612c0c578082015181840152602081019050612bf1565b83811115612c1b576000848401525b50505050565b60006002820490506001821680612c3957607f821691505b60208210811415612c4d57612c4c612d5c565b5b50919050565b612c5c82612dba565b810181811067ffffffffffffffff82111715612c7b57612c7a612d8b565b5b80604052505050565b6000612c8f82612bc8565b91507fffffffffffffffffffffffffffffffffffffffffffffffffffffffffffffffff821415612cc257612cc1612cfe565b5b600182019050919050565b6000612cd882612bc8565b9150612ce383612bc8565b925082612cf357612cf2612d2d565b5b828206905092915050565b7f4e487b7100000000000000000000000000000000000000000000000000000000600052601160045260246000fd5b7f4e487b7100000000000000000000000000000000000000000000000000000000600052601260045260246000fd5b7f4e487b7100000000000000000000000000000000000000000000000000000000600052602260045260246000fd5b7f4e487b7100000000000000000000000000000000000000000000000000000000600052604160045260246000fd5b6000601f19601f8301169050919050565b7f455243373231456e756d657261626c653a206f776e657220696e646578206f7560008201527f74206f6620626f756e6473000000000000000000000000000000000000000000602082015250565b7f4552433732313a207472616e7366657220746f206e6f6e20455243373231526560008201527f63656976657220696d706c656d656e7465720000000000000000000000000000602082015250565b7f53656e6420302e30322045544800000000000000000000000000000000000000600082015250565b7f4552433732313a207472616e736665722066726f6d20696e636f72726563742060008201527f6f776e6572000000000000000000000000000000000000000000000000000000602082015250565b7f4552433732313a20746f6b656e20616c7265616479206d696e74656400000000600082015250565b7f4552433732313a207472616e7366657220746f20746865207a65726f2061646460008201527f7265737300000000000000000000000000000000000000000000000000000000602082015250565b7f4552433732313a20617070726f766520746f2063616c6c657200000000000000600082015250565b7f4552433732313a2061646472657373207a65726f206973206e6f74206120766160008201527f6c6964206f776e65720000000000000000000000000000000000000000000000602082015250565b7f4552433732313a20617070726f76652063616c6c6572206973206e6f7420746f60008201527f6b656e206f776e6572206e6f7220617070726f76656420666f7220616c6c0000602082015250565b7f4552433732313a206d696e7420746f20746865207a65726f2061646472657373600082015250565b7f4552433732313a20696e76616c696420746f6b656e2049440000000000000000600082015250565b7f4552433732313a20617070726f76616c20746f2063757272656e74206f776e6560008201527f7200000000000000000000000000000000000000000000000000000000000000602082015250565b7f455243373231456e756d657261626c653a20676c6f62616c20696e646578206f60008201527f7574206f6620626f756e64730000000000000000000000000000000000000000602082015250565b7f68747470733a2f2f756e69746f7069616261636b656e642e6f6e72656e64657260008201527f2e636f6d2f6170692f6d657461646174612f0000000000000000000000000000602082015250565b7f4552433732313a2063616c6c6572206973206e6f7420746f6b656e206f776e6560008201527f72206e6f7220617070726f766564000000000000000000000000000000000000602082015250565b6131b781612b5e565b81146131c257600080fd5b50565b6131ce81612b70565b81146131d957600080fd5b50565b6131e581612b7c565b81146131f057600080fd5b50565b6131fc81612bc8565b811461320757600080fd5b50565b61321381612bd2565b811461321e57600080fd5b5056fea2646970667358221220afd840f1773a72be9906effcb5d0dd57d9ae0d11b838fb196f55fa613be02baf64736f6c63430008040033",
  "linkReferences": {},
  "deployedLinkReferences": {}
}